{
  "address": "0xDA47f407ba7170D2a453851384222C6c1c07410B",
  "abi": [
    {
      "inputs": [
        {
          "internalType": "address",
          "name": "owner",
          "type": "address"
        }
      ],
      "name": "deeplinkOf",
      "outputs": [
        {
          "internalType": "string",
          "name": "",
          "type": "string"
        }
      ],
      "stateMutability": "view",
      "type": "function"
    },
    {
      "inputs": [
        {
          "internalType": "string",
          "name": "",
          "type": "string"
        }
      ],
      "name": "deeplinkToAddress",
      "outputs": [
        {
          "internalType": "address",
          "name": "",
          "type": "address"
        }
      ],
      "stateMutability": "view",
      "type": "function"
    },
    {
      "inputs": [
        {
          "internalType": "address",
          "name": "owner",
          "type": "address"
        }
      ],
      "name": "nameOf",
      "outputs": [
        {
          "internalType": "string",
          "name": "",
          "type": "string"
        }
      ],
      "stateMutability": "view",
      "type": "function"
    },
    {
      "inputs": [],
      "name": "remove",
      "outputs": [],
      "stateMutability": "nonpayable",
      "type": "function"
    },
    {
      "inputs": [
        {
          "components": [
            {
              "internalType": "string",
              "name": "name",
              "type": "string"
            },
            {
              "internalType": "string",
              "name": "imageURL",
              "type": "string"
            },
            {
              "internalType": "string",
              "name": "deeplink",
              "type": "string"
            },
            {
              "internalType": "string",
              "name": "description",
              "type": "string"
            },
            {
              "internalType": "string",
              "name": "url",
              "type": "string"
            },
            {
              "internalType": "string",
              "name": "twitter",
              "type": "string"
            },
            {
              "internalType": "string",
              "name": "instagram",
              "type": "string"
            },
            {
              "internalType": "string",
              "name": "medium",
              "type": "string"
            }
          ],
          "internalType": "struct NidhiProfile.Profile",
          "name": "profile",
          "type": "tuple"
        }
      ],
      "name": "update",
      "outputs": [],
      "stateMutability": "nonpayable",
      "type": "function"
    },
    {
      "inputs": [
        {
          "internalType": "address",
          "name": "",
          "type": "address"
        }
      ],
      "name": "userProfiles",
      "outputs": [
        {
          "internalType": "string",
          "name": "name",
          "type": "string"
        },
        {
          "internalType": "string",
          "name": "imageURL",
          "type": "string"
        },
        {
          "internalType": "string",
          "name": "deeplink",
          "type": "string"
        },
        {
          "internalType": "string",
          "name": "description",
          "type": "string"
        },
        {
          "internalType": "string",
          "name": "url",
          "type": "string"
        },
        {
          "internalType": "string",
          "name": "twitter",
          "type": "string"
        },
        {
          "internalType": "string",
          "name": "instagram",
          "type": "string"
        },
        {
          "internalType": "string",
          "name": "medium",
          "type": "string"
        }
      ],
      "stateMutability": "view",
      "type": "function"
    }
  ],
  "transactionHash": "0xd275ee3659bfd9efc43198ad4261e8f3c83ffbb2fddc25a051e199d02c97caa3",
  "args": [],
  "solcInputHash": "c4147c38b87fc156f38be2c3f31aef67",
  "bytecode": "0x608060405234801561001057600080fd5b50610f8d806100206000396000f3fe608060405234801561001057600080fd5b50600436106100725760003560e01c8063a7f4377911610050578063a7f4377914610113578063ca01555a1461011d578063f5c573821461013057600080fd5b8063332d56d714610077578063435cf38c146100a75780637805228a146100f3575b600080fd5b61008a610085366004610b37565b610143565b60405161009e989796959493929190610dfd565b60405180910390f35b6100db6100b5366004610b65565b80516020818301810180516001825292820191909301209152546001600160a01b031681565b6040516001600160a01b03909116815260200161009e565b610106610101366004610b37565b6105c3565b60405161009e9190610dea565b61011b610672565b005b61011b61012b366004610ba0565b610733565b61010661013e366004610b37565b6109b3565b60006020819052908152604090208054819061015e90610f06565b80601f016020809104026020016040519081016040528092919081815260200182805461018a90610f06565b80156101d75780601f106101ac576101008083540402835291602001916101d7565b820191906000526020600020905b8154815290600101906020018083116101ba57829003601f168201915b5050505050908060010180546101ec90610f06565b80601f016020809104026020016040519081016040528092919081815260200182805461021890610f06565b80156102655780601f1061023a57610100808354040283529160200191610265565b820191906000526020600020905b81548152906001019060200180831161024857829003601f168201915b50505050509080600201805461027a90610f06565b80601f01602080910402602001604051908101604052809291908181526020018280546102a690610f06565b80156102f35780601f106102c8576101008083540402835291602001916102f3565b820191906000526020600020905b8154815290600101906020018083116102d657829003601f168201915b50505050509080600301805461030890610f06565b80601f016020809104026020016040519081016040528092919081815260200182805461033490610f06565b80156103815780601f1061035657610100808354040283529160200191610381565b820191906000526020600020905b81548152906001019060200180831161036457829003601f168201915b50505050509080600401805461039690610f06565b80601f01602080910402602001604051908101604052809291908181526020018280546103c290610f06565b801561040f5780601f106103e45761010080835404028352916020019161040f565b820191906000526020600020905b8154815290600101906020018083116103f257829003601f168201915b50505050509080600501805461042490610f06565b80601f016020809104026020016040519081016040528092919081815260200182805461045090610f06565b801561049d5780601f106104725761010080835404028352916020019161049d565b820191906000526020600020905b81548152906001019060200180831161048057829003601f168201915b5050505050908060060180546104b290610f06565b80601f01602080910402602001604051908101604052809291908181526020018280546104de90610f06565b801561052b5780601f106105005761010080835404028352916020019161052b565b820191906000526020600020905b81548152906001019060200180831161050e57829003601f168201915b50505050509080600701805461054090610f06565b80601f016020809104026020016040519081016040528092919081815260200182805461056c90610f06565b80156105b95780601f1061058e576101008083540402835291602001916105b9565b820191906000526020600020905b81548152906001019060200180831161059c57829003601f168201915b5050505050905088565b6001600160a01b03811660009081526020819052604090206002018054606091906105ed90610f06565b80601f016020809104026020016040519081016040528092919081815260200182805461061990610f06565b80156106665780601f1061063b57610100808354040283529160200191610666565b820191906000526020600020905b81548152906001019060200180831161064957829003601f168201915b50505050509050919050565b3360009081526020819052604090819020905160019161069791600290910190610dde565b908152604080516020928190038301902080546001600160a01b0319169055336000908152918290528120906106cd82826109da565b6106db6001830160006109da565b6106e96002830160006109da565b6106f76003830160006109da565b6107056004830160006109da565b6107136005830160006109da565b6107216006830160006109da565b61072f6007830160006109da565b5050565b60408101518051156107d35760006001826040516107519190610dc2565b908152604051908190036020019020546001600160a01b0316905080158061078157506001600160a01b03811633145b6107d15760405162461bcd60e51b815260206004820152601760248201527f646565706c696e6b20616c726561647920696e20757365000000000000000000604482015260640160405180910390fd5b505b336000818152602081905260409020600201805481906107f290610f06565b15905061086c576001816040516108099190610dde565b9081526040805191829003602001822080546001600160a01b0319169055850151839160019161083891610dc2565b90815260405190819003602001902080546001600160a01b03929092166001600160a01b03199092169190911790556108bc565b604084015151156108bc57816001856040015160405161088c9190610dc2565b90815260405190819003602001902080546001600160a01b03929092166001600160a01b03199092169190911790555b6001600160a01b0382166000908152602081815260409091208551805187936108e9928492910190610a17565b5060208281015180516109029260018501920190610a17565b506040820151805161091e916002840191602090910190610a17565b506060820151805161093a916003840191602090910190610a17565b5060808201518051610956916004840191602090910190610a17565b5060a08201518051610972916005840191602090910190610a17565b5060c0820151805161098e916006840191602090910190610a17565b5060e082015180516109aa916007840191602090910190610a17565b50505050505050565b6001600160a01b03811660009081526020819052604090208054606091906105ed90610f06565b5080546109e690610f06565b6000825580601f106109f6575050565b601f016020900490600052602060002090810190610a149190610a9b565b50565b828054610a2390610f06565b90600052602060002090601f016020900481019282610a455760008555610a8b565b82601f10610a5e57805160ff1916838001178555610a8b565b82800160010185558215610a8b579182015b82811115610a8b578251825591602001919060010190610a70565b50610a97929150610a9b565b5090565b5b80821115610a975760008155600101610a9c565b600082601f830112610ac0578081fd5b813567ffffffffffffffff80821115610adb57610adb610f41565b604051601f8301601f19908116603f01168101908282118183101715610b0357610b03610f41565b81604052838152866020858801011115610b1b578485fd5b8360208701602083013792830160200193909352509392505050565b600060208284031215610b48578081fd5b81356001600160a01b0381168114610b5e578182fd5b9392505050565b600060208284031215610b76578081fd5b813567ffffffffffffffff811115610b8c578182fd5b610b9884828501610ab0565b949350505050565b600060208284031215610bb1578081fd5b813567ffffffffffffffff80821115610bc8578283fd5b908301906101008286031215610bdc578283fd5b610be4610eac565b823582811115610bf2578485fd5b610bfe87828601610ab0565b825250602083013582811115610c12578485fd5b610c1e87828601610ab0565b602083015250604083013582811115610c35578485fd5b610c4187828601610ab0565b604083015250606083013582811115610c58578485fd5b610c6487828601610ab0565b606083015250608083013582811115610c7b578485fd5b610c8787828601610ab0565b60808301525060a083013582811115610c9e578485fd5b610caa87828601610ab0565b60a08301525060c083013582811115610cc1578485fd5b610ccd87828601610ab0565b60c08301525060e083013582811115610ce4578485fd5b610cf087828601610ab0565b60e08301525095945050505050565b60008151808452610d17816020860160208601610ed6565b601f01601f19169290920160200192915050565b8054600090600181811c9080831680610d4557607f831692505b6020808410821415610d6557634e487b7160e01b86526022600452602486fd5b818015610d795760018114610d8a57610db6565b60ff19861689528489019650610db6565b876000528160002060005b86811015610dae5781548b820152908501908301610d95565b505084890196505b50505050505092915050565b60008251610dd4818460208701610ed6565b9190910192915050565b6000610b5e8284610d2b565b602081526000610b5e6020830184610cff565b6000610100808352610e118184018c610cff565b90508281036020840152610e25818b610cff565b90508281036040840152610e39818a610cff565b90508281036060840152610e4d8189610cff565b90508281036080840152610e618188610cff565b905082810360a0840152610e758187610cff565b905082810360c0840152610e898186610cff565b905082810360e0840152610e9d8185610cff565b9b9a5050505050505050505050565b604051610100810167ffffffffffffffff81118282101715610ed057610ed0610f41565b60405290565b60005b83811015610ef1578181015183820152602001610ed9565b83811115610f00576000848401525b50505050565b600181811c90821680610f1a57607f821691505b60208210811415610f3b57634e487b7160e01b600052602260045260246000fd5b50919050565b634e487b7160e01b600052604160045260246000fdfea2646970667358221220c17f468ce0b1d8e1a3a44f8d0098c0f86ca81e031596ac585d9fd32113c6a43364736f6c63430008040033",
  "devdoc": {
    "kind": "dev",
    "methods": {},
    "version": 1
  },
  "userdoc": {
    "kind": "user",
    "methods": {},
    "version": 1
  },
  "storageLayout": {
    "storage": [
      {
        "astId": 7834,
        "contract": "contracts/NidhiProfile.sol:NidhiProfile",
        "label": "userProfiles",
        "offset": 0,
        "slot": "0",
        "type": "t_mapping(t_address,t_struct(Profile)7829_storage)"
      },
      {
        "astId": 7838,
        "contract": "contracts/NidhiProfile.sol:NidhiProfile",
        "label": "deeplinkToAddress",
        "offset": 0,
        "slot": "1",
        "type": "t_mapping(t_string_memory_ptr,t_address)"
      }
    ],
    "types": {
      "t_address": {
        "encoding": "inplace",
        "label": "address",
        "numberOfBytes": "20"
      },
      "t_mapping(t_address,t_struct(Profile)7829_storage)": {
        "encoding": "mapping",
        "key": "t_address",
        "label": "mapping(address => struct NidhiProfile.Profile)",
        "numberOfBytes": "32",
        "value": "t_struct(Profile)7829_storage"
      },
      "t_mapping(t_string_memory_ptr,t_address)": {
        "encoding": "mapping",
        "key": "t_string_memory_ptr",
        "label": "mapping(string => address)",
        "numberOfBytes": "32",
        "value": "t_address"
      },
      "t_string_memory_ptr": {
        "encoding": "bytes",
        "label": "string",
        "numberOfBytes": "32"
      },
      "t_string_storage": {
        "encoding": "bytes",
        "label": "string",
        "numberOfBytes": "32"
      },
      "t_struct(Profile)7829_storage": {
        "encoding": "inplace",
        "label": "struct NidhiProfile.Profile",
        "members": [
          {
            "astId": 7814,
            "contract": "contracts/NidhiProfile.sol:NidhiProfile",
            "label": "name",
            "offset": 0,
            "slot": "0",
            "type": "t_string_storage"
          },
          {
            "astId": 7816,
            "contract": "contracts/NidhiProfile.sol:NidhiProfile",
            "label": "imageURL",
            "offset": 0,
            "slot": "1",
            "type": "t_string_storage"
          },
          {
            "astId": 7818,
            "contract": "contracts/NidhiProfile.sol:NidhiProfile",
            "label": "deeplink",
            "offset": 0,
            "slot": "2",
            "type": "t_string_storage"
          },
          {
            "astId": 7820,
            "contract": "contracts/NidhiProfile.sol:NidhiProfile",
            "label": "description",
            "offset": 0,
            "slot": "3",
            "type": "t_string_storage"
          },
          {
            "astId": 7822,
            "contract": "contracts/NidhiProfile.sol:NidhiProfile",
            "label": "url",
            "offset": 0,
            "slot": "4",
            "type": "t_string_storage"
          },
          {
            "astId": 7824,
            "contract": "contracts/NidhiProfile.sol:NidhiProfile",
            "label": "twitter",
            "offset": 0,
            "slot": "5",
            "type": "t_string_storage"
          },
          {
            "astId": 7826,
            "contract": "contracts/NidhiProfile.sol:NidhiProfile",
            "label": "instagram",
            "offset": 0,
            "slot": "6",
            "type": "t_string_storage"
          },
          {
            "astId": 7828,
            "contract": "contracts/NidhiProfile.sol:NidhiProfile",
            "label": "medium",
            "offset": 0,
            "slot": "7",
            "type": "t_string_storage"
          }
        ],
        "numberOfBytes": "256"
      }
    }
  }
}