{
  "address": "0xb7bB6098779A47d1Ea8e568E35381696D9d781C9",
  "abi": [
    {
      "inputs": [
        {
          "internalType": "address",
          "name": "marketplaceAddress",
          "type": "address"
        },
        {
          "internalType": "string",
          "name": "marketBaseURI",
          "type": "string"
        },
        {
          "internalType": "string",
          "name": "tokenBaseURI",
          "type": "string"
        }
      ],
      "stateMutability": "nonpayable",
      "type": "constructor"
    },
    {
      "anonymous": false,
      "inputs": [
        {
          "indexed": true,
          "internalType": "address",
          "name": "owner",
          "type": "address"
        },
        {
          "indexed": true,
          "internalType": "address",
          "name": "approved",
          "type": "address"
        },
        {
          "indexed": true,
          "internalType": "uint256",
          "name": "tokenId",
          "type": "uint256"
        }
      ],
      "name": "Approval",
      "type": "event"
    },
    {
      "anonymous": false,
      "inputs": [
        {
          "indexed": true,
          "internalType": "address",
          "name": "owner",
          "type": "address"
        },
        {
          "indexed": true,
          "internalType": "address",
          "name": "operator",
          "type": "address"
        },
        {
          "indexed": false,
          "internalType": "bool",
          "name": "approved",
          "type": "bool"
        }
      ],
      "name": "ApprovalForAll",
      "type": "event"
    },
    {
      "anonymous": false,
      "inputs": [
        {
          "indexed": true,
          "internalType": "uint256",
          "name": "tokenId",
          "type": "uint256"
        },
        {
          "indexed": true,
          "internalType": "address",
          "name": "creator",
          "type": "address"
        },
        {
          "indexed": false,
          "internalType": "string",
          "name": "name",
          "type": "string"
        },
        {
          "indexed": false,
          "internalType": "string",
          "name": "description",
          "type": "string"
        },
        {
          "indexed": false,
          "internalType": "string",
          "name": "imageURI",
          "type": "string"
        }
      ],
      "name": "TokenCreated",
      "type": "event"
    },
    {
      "anonymous": false,
      "inputs": [
        {
          "indexed": true,
          "internalType": "address",
          "name": "from",
          "type": "address"
        },
        {
          "indexed": true,
          "internalType": "address",
          "name": "to",
          "type": "address"
        },
        {
          "indexed": true,
          "internalType": "uint256",
          "name": "tokenId",
          "type": "uint256"
        }
      ],
      "name": "Transfer",
      "type": "event"
    },
    {
      "inputs": [
        {
          "internalType": "address",
          "name": "to",
          "type": "address"
        },
        {
          "internalType": "uint256",
          "name": "tokenId",
          "type": "uint256"
        }
      ],
      "name": "approve",
      "outputs": [],
      "stateMutability": "nonpayable",
      "type": "function"
    },
    {
      "inputs": [
        {
          "internalType": "uint256",
          "name": "tokenId",
          "type": "uint256"
        },
        {
          "internalType": "bool",
          "name": "approve",
          "type": "bool"
        }
      ],
      "name": "approvePublicTrading",
      "outputs": [],
      "stateMutability": "nonpayable",
      "type": "function"
    },
    {
      "inputs": [
        {
          "internalType": "address",
          "name": "owner",
          "type": "address"
        }
      ],
      "name": "balanceOf",
      "outputs": [
        {
          "internalType": "uint256",
          "name": "",
          "type": "uint256"
        }
      ],
      "stateMutability": "view",
      "type": "function"
    },
    {
      "inputs": [
        {
          "internalType": "uint256",
          "name": "tokenId",
          "type": "uint256"
        }
      ],
      "name": "burn",
      "outputs": [],
      "stateMutability": "nonpayable",
      "type": "function"
    },
    {
      "inputs": [
        {
          "internalType": "string",
          "name": "name_",
          "type": "string"
        },
        {
          "internalType": "string",
          "name": "description_",
          "type": "string"
        },
        {
          "internalType": "string",
          "name": "imageURI_",
          "type": "string"
        }
      ],
      "name": "createToken",
      "outputs": [
        {
          "internalType": "uint256",
          "name": "tokenId",
          "type": "uint256"
        }
      ],
      "stateMutability": "nonpayable",
      "type": "function"
    },
    {
      "inputs": [
        {
          "internalType": "uint256",
          "name": "tokenId",
          "type": "uint256"
        }
      ],
      "name": "creatorOf",
      "outputs": [
        {
          "internalType": "address",
          "name": "creator",
          "type": "address"
        }
      ],
      "stateMutability": "view",
      "type": "function"
    },
    {
      "inputs": [
        {
          "internalType": "uint256",
          "name": "tokenId",
          "type": "uint256"
        }
      ],
      "name": "getApproved",
      "outputs": [
        {
          "internalType": "address",
          "name": "",
          "type": "address"
        }
      ],
      "stateMutability": "view",
      "type": "function"
    },
    {
      "inputs": [
        {
          "internalType": "address",
          "name": "owner",
          "type": "address"
        },
        {
          "internalType": "address",
          "name": "operator",
          "type": "address"
        }
      ],
      "name": "isApprovedForAll",
      "outputs": [
        {
          "internalType": "bool",
          "name": "",
          "type": "bool"
        }
      ],
      "stateMutability": "view",
      "type": "function"
    },
    {
      "inputs": [
        {
          "internalType": "uint256",
          "name": "tokenId",
          "type": "uint256"
        }
      ],
      "name": "metadata",
      "outputs": [
        {
          "components": [
            {
              "internalType": "string",
              "name": "image",
              "type": "string"
            },
            {
              "internalType": "string",
              "name": "externalURL",
              "type": "string"
            },
            {
              "internalType": "string",
              "name": "description",
              "type": "string"
            },
            {
              "internalType": "string",
              "name": "name",
              "type": "string"
            },
            {
              "internalType": "uint256",
              "name": "intrinsicValue",
              "type": "uint256"
            }
          ],
          "internalType": "struct NidhiNFT.Metadata",
          "name": "meta",
          "type": "tuple"
        }
      ],
      "stateMutability": "view",
      "type": "function"
    },
    {
      "inputs": [],
      "name": "name",
      "outputs": [
        {
          "internalType": "string",
          "name": "",
          "type": "string"
        }
      ],
      "stateMutability": "view",
      "type": "function"
    },
    {
      "inputs": [
        {
          "internalType": "uint256",
          "name": "tokenId",
          "type": "uint256"
        }
      ],
      "name": "ownerOf",
      "outputs": [
        {
          "internalType": "address",
          "name": "",
          "type": "address"
        }
      ],
      "stateMutability": "view",
      "type": "function"
    },
    {
      "inputs": [
        {
          "internalType": "address",
          "name": "from",
          "type": "address"
        },
        {
          "internalType": "address",
          "name": "to",
          "type": "address"
        },
        {
          "internalType": "uint256",
          "name": "tokenId",
          "type": "uint256"
        }
      ],
      "name": "safeTransferFrom",
      "outputs": [],
      "stateMutability": "nonpayable",
      "type": "function"
    },
    {
      "inputs": [
        {
          "internalType": "address",
          "name": "from",
          "type": "address"
        },
        {
          "internalType": "address",
          "name": "to",
          "type": "address"
        },
        {
          "internalType": "uint256",
          "name": "tokenId",
          "type": "uint256"
        },
        {
          "internalType": "bytes",
          "name": "_data",
          "type": "bytes"
        }
      ],
      "name": "safeTransferFrom",
      "outputs": [],
      "stateMutability": "nonpayable",
      "type": "function"
    },
    {
      "inputs": [
        {
          "internalType": "address",
          "name": "operator",
          "type": "address"
        },
        {
          "internalType": "bool",
          "name": "approved",
          "type": "bool"
        }
      ],
      "name": "setApprovalForAll",
      "outputs": [],
      "stateMutability": "nonpayable",
      "type": "function"
    },
    {
      "inputs": [
        {
          "internalType": "string",
          "name": "baseURI",
          "type": "string"
        }
      ],
      "name": "setMarketBaseURI",
      "outputs": [],
      "stateMutability": "nonpayable",
      "type": "function"
    },
    {
      "inputs": [
        {
          "internalType": "string",
          "name": "baseURI",
          "type": "string"
        }
      ],
      "name": "setTokenBaseURI",
      "outputs": [],
      "stateMutability": "nonpayable",
      "type": "function"
    },
    {
      "inputs": [
        {
          "internalType": "bytes4",
          "name": "interfaceId",
          "type": "bytes4"
        }
      ],
      "name": "supportsInterface",
      "outputs": [
        {
          "internalType": "bool",
          "name": "",
          "type": "bool"
        }
      ],
      "stateMutability": "view",
      "type": "function"
    },
    {
      "inputs": [],
      "name": "symbol",
      "outputs": [
        {
          "internalType": "string",
          "name": "",
          "type": "string"
        }
      ],
      "stateMutability": "view",
      "type": "function"
    },
    {
      "inputs": [
        {
          "internalType": "uint256",
          "name": "tokenId",
          "type": "uint256"
        }
      ],
      "name": "tokenURI",
      "outputs": [
        {
          "internalType": "string",
          "name": "",
          "type": "string"
        }
      ],
      "stateMutability": "view",
      "type": "function"
    },
    {
      "inputs": [
        {
          "internalType": "address",
          "name": "from",
          "type": "address"
        },
        {
          "internalType": "address",
          "name": "to",
          "type": "address"
        },
        {
          "internalType": "uint256",
          "name": "tokenId",
          "type": "uint256"
        }
      ],
      "name": "transferFrom",
      "outputs": [],
      "stateMutability": "nonpayable",
      "type": "function"
    },
    {
      "inputs": [
        {
          "internalType": "address",
          "name": "newOwner",
          "type": "address"
        }
      ],
      "name": "transferOwnership",
      "outputs": [],
      "stateMutability": "nonpayable",
      "type": "function"
    }
  ],
  "transactionHash": "0x1bb670c3996d244193abfcfdfcfd73e9e6f8d0157c8ff80bf1c0364484e864e6",
  "args": [
    "0x8dCf52e97f0Cb64d88ceE6Cd8B35054BC8A77D9E",
    "https://dev.d2gax8s8oaq7rz.amplifyapp.com/items/",
    "https://latb9h0oye.execute-api.us-east-1.amazonaws.com/dev/tokens/"
  ],
  "solcInputHash": "c4147c38b87fc156f38be2c3f31aef67",
  "bytecode": "0x60a06040523480156200001157600080fd5b506040516200287e3803806200287e83398101604081905262000034916200025e565b604080518082018252601881527f4e69646869205061737369766520496e636f6d65204e465400000000000000006020808301918252835180850190945260038452624e504960e81b908401528151919291620000949160009162000105565b508051620000aa90600190602084019062000105565b50508251620000c29150600890602085019062000105565b508051620000d890600990602084019062000105565b505060078054336001600160a01b03199091161790555060601b6001600160601b03191660805262000337565b8280546200011390620002e4565b90600052602060002090601f01602090048101928262000137576000855562000182565b82601f106200015257805160ff191683800117855562000182565b8280016001018555821562000182579182015b828111156200018257825182559160200191906001019062000165565b506200019092915062000194565b5090565b5b8082111562000190576000815560010162000195565b600082601f830112620001bc578081fd5b81516001600160401b0380821115620001d957620001d962000321565b604051601f8301601f19908116603f0116810190828211818310171562000204576200020462000321565b8160405283815260209250868385880101111562000220578485fd5b8491505b8382101562000243578582018301518183018401529082019062000224565b838211156200025457848385830101525b9695505050505050565b60008060006060848603121562000273578283fd5b83516001600160a01b03811681146200028a578384fd5b60208501519093506001600160401b0380821115620002a7578384fd5b620002b587838801620001ab565b93506040860151915080821115620002cb578283fd5b50620002da86828701620001ab565b9150509250925092565b600181811c90821680620002f957607f821691505b602082108114156200031b57634e487b7160e01b600052602260045260246000fd5b50919050565b634e487b7160e01b600052604160045260246000fd5b60805160601c6124f06200038e600039600081816103500152818161075f01528181610dc101528181611059015281816114d00152818161150d015281816115900152818161162001526116bf01526124f06000f3fe608060405234801561001057600080fd5b50600436106101475760003560e01c806369890239116100c8578063a22cb4651161008c578063e3684e3911610066578063e3684e39146102d6578063e985e9c5146102f6578063f2fde38b1461033257600080fd5b8063a22cb4651461029d578063b88d4fde146102b0578063c87b56dd146102c357600080fd5b8063698902391461023b57806370a082311461024e5780638ef79e911461026f57806394aed7d01461028257806395d89b411461029557600080fd5b806323b872dd1161010f57806323b872dd146101dc57806342842e0e146101ef57806342966c6814610202578063589a1743146102155780636352211e1461022857600080fd5b8063018c47261461014c57806301ffc9a71461016157806306fdde0314610189578063081812fc1461019e578063095ea7b3146101c9575b600080fd5b61015f61015a366004612136565b610345565b005b61017461016f366004612017565b61039a565b60405190151581526020015b60405180910390f35b6101916103ec565b60405161018091906122b1565b6101b16101ac366004612106565b61047e565b6040516001600160a01b039091168152602001610180565b61015f6101d7366004611fee565b610518565b61015f6101ea366004611f11565b61062e565b61015f6101fd366004611f11565b6106a9565b61015f610210366004612106565b6106c4565b6101b1610223366004612106565b610819565b6101b1610236366004612106565b610883565b61015f61024936600461204f565b6108fa565b61026161025c366004611ec5565b610965565b604051908152602001610180565b61015f61027d36600461204f565b6109ec565b610261610290366004612082565b610a53565b610191610b87565b61015f6102ab366004611fc5565b610b96565b61015f6102be366004611f4c565b610ba1565b6101916102d1366004612106565b610c23565b6102e96102e4366004612106565b610d0c565b60405161018091906122fd565b610174610304366004611edf565b6001600160a01b03918216600090815260056020908152604080832093909416825291909152205460ff1690565b61015f610340366004611ec5565b6110e8565b336001600160a01b037f0000000000000000000000000000000000000000000000000000000000000000161461037a57600080fd5b6000918252600b6020526040909120805460ff1916911515919091179055565b60006001600160e01b031982166380ac58cd60e01b14806103cb57506001600160e01b03198216635b5e139f60e01b145b806103e657506301ffc9a760e01b6001600160e01b03198316145b92915050565b6060600080546103fb906123f8565b80601f0160208091040260200160405190810160405280929190818152602001828054610427906123f8565b80156104745780601f1061044957610100808354040283529160200191610474565b820191906000526020600020905b81548152906001019060200180831161045757829003601f168201915b5050505050905090565b6000818152600260205260408120546001600160a01b03166104fc5760405162461bcd60e51b815260206004820152602c60248201527f4552433732313a20617070726f76656420717565727920666f72206e6f6e657860448201526b34b9ba32b73a103a37b5b2b760a11b60648201526084015b60405180910390fd5b506000908152600460205260409020546001600160a01b031690565b600061052382610883565b9050806001600160a01b0316836001600160a01b031614156105915760405162461bcd60e51b815260206004820152602160248201527f4552433732313a20617070726f76616c20746f2063757272656e74206f776e656044820152603960f91b60648201526084016104f3565b336001600160a01b03821614806105ad57506105ad8133610304565b61061f5760405162461bcd60e51b815260206004820152603860248201527f4552433732313a20617070726f76652063616c6c6572206973206e6f74206f7760448201527f6e6572206e6f7220617070726f76656420666f7220616c6c000000000000000060648201526084016104f3565b610629838361115e565b505050565b61063833826111cc565b61069e5760405162461bcd60e51b815260206004820152603160248201527f4552433732313a207472616e736665722063616c6c6572206973206e6f74206f6044820152701ddb995c881b9bdc88185c1c1c9bdd9959607a1b60648201526084016104f3565b6106298383836112c3565b61062983838360405180602001604052806000815250610ba1565b6106ce33826111cc565b61071a5760405162461bcd60e51b815260206004820181905260248201527f63616c6c6572206973206e6f74206f776e6572206e6f7220617070726f76656460448201526064016104f3565b610723816112d9565b6000818152600a602052604090819020549051630273f8f160e51b81526001600160a01b039182166004820152306024820152604481018390527f000000000000000000000000000000000000000000000000000000000000000090911690634e7f1e2090606401600060405180830381600087803b1580156107a557600080fd5b505af11580156107b9573d6000803e3d6000fd5b5050506000828152600a6020908152604080832080546001600160a01b0319169055600b8252808320805460ff19169055600c909152812091506107fd8282611d33565b61080b600183016000611d33565b610629600283016000611d33565b6000818152600a60205260409020546001600160a01b03168061087e5760405162461bcd60e51b815260206004820152601060248201527f696e76616c696420746f6b656e2069640000000000000000000000000000000060448201526064016104f3565b919050565b6000818152600260205260408120546001600160a01b0316806103e65760405162461bcd60e51b815260206004820152602960248201527f4552433732313a206f776e657220717565727920666f72206e6f6e657869737460448201526832b73a103a37b5b2b760b91b60648201526084016104f3565b6007546001600160a01b0316331461094e5760405162461bcd60e51b815260206004820152601760248201527631b0b63632b91034b9903737ba103a34329037bbb732b960491b60448201526064016104f3565b8051610961906008906020840190611d70565b5050565b60006001600160a01b0382166109d05760405162461bcd60e51b815260206004820152602a60248201527f4552433732313a2062616c616e636520717565727920666f7220746865207a65604482015269726f206164647265737360b01b60648201526084016104f3565b506001600160a01b031660009081526003602052604090205490565b6007546001600160a01b03163314610a405760405162461bcd60e51b815260206004820152601760248201527631b0b63632b91034b9903737ba103a34329037bbb732b960491b60448201526064016104f3565b8051610961906009906020840190611d70565b600080339050600660008154610a6890612433565b91829055509150610a798183611380565b610a85600082846114ce565b610aa960405180606001604052806060815260200160608152602001606081525090565b604080820187905260208083018790528583526000858152600c825291909120825180518493610add928492910190611d70565b506020828101518051610af69260018501920190611d70565b5060408201518051610b12916002840191602090910190611d70565b5050506000838152600a60205260409081902080546001600160a01b0319166001600160a01b038516908117909155905184907f73dbc7310086e0356d0c988778ae199aa6a03d42f1b60660ec8555cb5a58249690610b76908a908a908a906122c4565b60405180910390a350509392505050565b6060600180546103fb906123f8565b610961338383611720565b610bab33836111cc565b610c115760405162461bcd60e51b815260206004820152603160248201527f4552433732313a207472616e736665722063616c6c6572206973206e6f74206f6044820152701ddb995c881b9bdc88185c1c1c9bdd9959607a1b60648201526084016104f3565b610c1d848484846117ef565b50505050565b6000818152600260205260409020546060906001600160a01b0316610cb05760405162461bcd60e51b815260206004820152602f60248201527f4552433732314d657461646174613a2055524920717565727920666f72206e6f60448201527f6e6578697374656e7420746f6b656e000000000000000000000000000000000060648201526084016104f3565b6000610cba61186d565b90506000815111610cda5760405180602001604052806000815250610d05565b80610ce48461187c565b604051602001610cf59291906121a0565b6040516020818303038152906040525b9392505050565b610d3e6040518060a0016040528060608152602001606081526020016060815260200160608152602001600081525090565b6000828152600260205260409020546001600160a01b0316610da25760405162461bcd60e51b815260206004820181905260248201527f4d65746120717565727920666f72206e6f6e6578697374656e7420746f6b656e60448201526064016104f3565b60405163347aa81960e21b8152306004820152602481018390526000907f00000000000000000000000000000000000000000000000000000000000000006001600160a01b03169063d1eaa0649060440160206040518083038186803b158015610e0b57600080fd5b505afa158015610e1f573d6000803e3d6000fd5b505050506040513d601f19601f82011682018060405250810190610e43919061211e565b6000848152600c602052604090206002810180549293509091610e65906123f8565b80601f0160208091040260200160405190810160405280929190818152602001828054610e91906123f8565b8015610ede5780601f10610eb357610100808354040283529160200191610ede565b820191906000526020600020905b815481529060010190602001808311610ec157829003601f168201915b50505050508360600181905250806001018054610efa906123f8565b80601f0160208091040260200160405190810160405280929190818152602001828054610f26906123f8565b8015610f735780601f10610f4857610100808354040283529160200191610f73565b820191906000526020600020905b815481529060010190602001808311610f5657829003601f168201915b5050505050604084015280548190610f8a906123f8565b80601f0160208091040260200160405190810160405280929190818152602001828054610fb6906123f8565b80156110035780601f10610fd857610100808354040283529160200191611003565b820191906000526020600020905b815481529060010190602001808311610fe657829003601f168201915b505050918552505081156110e157600861101c8361187c565b60405160200161102d9291906121cf565b60408051808303601f1901815291815260208501919091525163bd9a549f60e01b8152600481018390527f00000000000000000000000000000000000000000000000000000000000000006001600160a01b03169063bd9a549f9060240160206040518083038186803b1580156110a357600080fd5b505afa1580156110b7573d6000803e3d6000fd5b505050506040513d601f19601f820116820180604052508101906110db919061211e565b60808401525b5050919050565b6007546001600160a01b0316331461113c5760405162461bcd60e51b815260206004820152601760248201527631b0b63632b91034b9903737ba103a34329037bbb732b960491b60448201526064016104f3565b600780546001600160a01b0319166001600160a01b0392909216919091179055565b600081815260046020526040902080546001600160a01b0319166001600160a01b038416908117909155819061119382610883565b6001600160a01b03167f8c5be1e5ebec7d5bd14f71427d1e84f3dd0314c0f7b2291e5b200ac8c7c3b92560405160405180910390a45050565b6000818152600260205260408120546001600160a01b03166112455760405162461bcd60e51b815260206004820152602c60248201527f4552433732313a206f70657261746f7220717565727920666f72206e6f6e657860448201526b34b9ba32b73a103a37b5b2b760a11b60648201526084016104f3565b600061125083610883565b9050806001600160a01b0316846001600160a01b0316148061128b5750836001600160a01b03166112808461047e565b6001600160a01b0316145b806112bb57506001600160a01b0380821660009081526005602090815260408083209388168352929052205460ff165b949350505050565b6112ce8383836119ae565b6106298383836114ce565b60006112e482610883565b90506112f281600084611b59565b6112fd60008361115e565b6001600160a01b03811660009081526003602052604081208054600192906113269084906123b5565b909155505060008281526002602052604080822080546001600160a01b0319169055518391906001600160a01b038416907fddf252ad1be2c89b69c2b068fc378daa952ba7f163c4a11628f55a4df523b3ef908390a45050565b6001600160a01b0382166113d65760405162461bcd60e51b815260206004820181905260248201527f4552433732313a206d696e7420746f20746865207a65726f206164647265737360448201526064016104f3565b6000818152600260205260409020546001600160a01b03161561143b5760405162461bcd60e51b815260206004820152601c60248201527f4552433732313a20746f6b656e20616c7265616479206d696e7465640000000060448201526064016104f3565b61144760008383611b59565b6001600160a01b0382166000908152600360205260408120805460019290611470908490612389565b909155505060008181526002602052604080822080546001600160a01b0319166001600160a01b03861690811790915590518392907fddf252ad1be2c89b69c2b068fc378daa952ba7f163c4a11628f55a4df523b3ef908290a45050565b7f00000000000000000000000000000000000000000000000000000000000000006001600160a01b0316836001600160a01b03161415801561154257507f00000000000000000000000000000000000000000000000000000000000000006001600160a01b0316826001600160a01b031614155b80156115605750816001600160a01b0316836001600160a01b031614155b15610629576001600160a01b038316156115f557604051636c0e3b0960e01b8152306004820152602481018290527f00000000000000000000000000000000000000000000000000000000000000006001600160a01b031690636c0e3b0990604401600060405180830381600087803b1580156115dc57600080fd5b505af11580156115f0573d6000803e3d6000fd5b505050505b6001600160a01b0382161561168557604051631f490b6d60e31b8152306004820152602481018290527f00000000000000000000000000000000000000000000000000000000000000006001600160a01b03169063fa485b6890604401600060405180830381600087803b15801561166c57600080fd5b505af1158015611680573d6000803e3d6000fd5b505050505b6001600160a01b038316610629576040516354178ae160e11b81526001600160a01b038381166004830152306024830152604482018390527f0000000000000000000000000000000000000000000000000000000000000000169063a82f15c290606401600060405180830381600087803b15801561170357600080fd5b505af1158015611717573d6000803e3d6000fd5b50505050505050565b816001600160a01b0316836001600160a01b031614156117825760405162461bcd60e51b815260206004820152601960248201527f4552433732313a20617070726f766520746f2063616c6c65720000000000000060448201526064016104f3565b6001600160a01b03838116600081815260056020908152604080832094871680845294825291829020805460ff191686151590811790915591519182527f17307eab39ab6107e8899845ad3d59bd9653f200f220920489ca2b5937696c31910160405180910390a3505050565b6117fa8484846112c3565b61180684848484611bdb565b610c1d5760405162461bcd60e51b815260206004820152603260248201527f4552433732313a207472616e7366657220746f206e6f6e20455243373231526560448201527131b2b4bb32b91034b6b83632b6b2b73a32b960711b60648201526084016104f3565b6060600980546103fb906123f8565b6060816118a05750506040805180820190915260018152600360fc1b602082015290565b8160005b81156118ca57806118b481612433565b91506118c39050600a836123a1565b91506118a4565b60008167ffffffffffffffff8111156118f357634e487b7160e01b600052604160045260246000fd5b6040519080825280601f01601f19166020018201604052801561191d576020820181803683370190505b5090505b84156112bb576119326001836123b5565b915061193f600a8661244e565b61194a906030612389565b60f81b81838151811061196d57634e487b7160e01b600052603260045260246000fd5b60200101907effffffffffffffffffffffffffffffffffffffffffffffffffffffffffffff1916908160001a9053506119a7600a866123a1565b9450611921565b826001600160a01b03166119c182610883565b6001600160a01b031614611a295760405162461bcd60e51b815260206004820152602960248201527f4552433732313a207472616e73666572206f6620746f6b656e2074686174206960448201526839903737ba1037bbb760b91b60648201526084016104f3565b6001600160a01b038216611a8b5760405162461bcd60e51b8152602060048201526024808201527f4552433732313a207472616e7366657220746f20746865207a65726f206164646044820152637265737360e01b60648201526084016104f3565b611a96838383611b59565b611aa160008261115e565b6001600160a01b0383166000908152600360205260408120805460019290611aca9084906123b5565b90915550506001600160a01b0382166000908152600360205260408120805460019290611af8908490612389565b909155505060008181526002602052604080822080546001600160a01b0319166001600160a01b0386811691821790925591518493918716917fddf252ad1be2c89b69c2b068fc378daa952ba7f163c4a11628f55a4df523b3ef91a4505050565b6001600160a01b0383161580611b7657506001600160a01b038216155b80611b8f57506000818152600b602052604090205460ff165b6106295760405162461bcd60e51b815260206004820152601a60248201527f7075626c69632074726164696e67206e6f7420616c6c6f77656400000000000060448201526064016104f3565b60006001600160a01b0384163b15611d2857604051630a85bd0160e11b81526001600160a01b0385169063150b7a0290611c1f903390899088908890600401612275565b602060405180830381600087803b158015611c3957600080fd5b505af1925050508015611c69575060408051601f3d908101601f19168201909252611c6691810190612033565b60015b611d0e573d808015611c97576040519150601f19603f3d011682016040523d82523d6000602084013e611c9c565b606091505b508051611d065760405162461bcd60e51b815260206004820152603260248201527f4552433732313a207472616e7366657220746f206e6f6e20455243373231526560448201527131b2b4bb32b91034b6b83632b6b2b73a32b960711b60648201526084016104f3565b805181602001fd5b6001600160e01b031916630a85bd0160e11b1490506112bb565b506001949350505050565b508054611d3f906123f8565b6000825580601f10611d4f575050565b601f016020900490600052602060002090810190611d6d9190611df4565b50565b828054611d7c906123f8565b90600052602060002090601f016020900481019282611d9e5760008555611de4565b82601f10611db757805160ff1916838001178555611de4565b82800160010185558215611de4579182015b82811115611de4578251825591602001919060010190611dc9565b50611df0929150611df4565b5090565b5b80821115611df05760008155600101611df5565b600067ffffffffffffffff80841115611e2457611e2461248e565b604051601f8501601f19908116603f01168101908282118183101715611e4c57611e4c61248e565b81604052809350858152868686011115611e6557600080fd5b858560208301376000602087830101525050509392505050565b80356001600160a01b038116811461087e57600080fd5b8035801515811461087e57600080fd5b600082601f830112611eb6578081fd5b610d0583833560208501611e09565b600060208284031215611ed6578081fd5b610d0582611e7f565b60008060408385031215611ef1578081fd5b611efa83611e7f565b9150611f0860208401611e7f565b90509250929050565b600080600060608486031215611f25578081fd5b611f2e84611e7f565b9250611f3c60208501611e7f565b9150604084013590509250925092565b60008060008060808587031215611f61578081fd5b611f6a85611e7f565b9350611f7860208601611e7f565b925060408501359150606085013567ffffffffffffffff811115611f9a578182fd5b8501601f81018713611faa578182fd5b611fb987823560208401611e09565b91505092959194509250565b60008060408385031215611fd7578182fd5b611fe083611e7f565b9150611f0860208401611e96565b60008060408385031215612000578182fd5b61200983611e7f565b946020939093013593505050565b600060208284031215612028578081fd5b8135610d05816124a4565b600060208284031215612044578081fd5b8151610d05816124a4565b600060208284031215612060578081fd5b813567ffffffffffffffff811115612076578182fd5b6112bb84828501611ea6565b600080600060608486031215612096578283fd5b833567ffffffffffffffff808211156120ad578485fd5b6120b987838801611ea6565b945060208601359150808211156120ce578384fd5b6120da87838801611ea6565b935060408601359150808211156120ef578283fd5b506120fc86828701611ea6565b9150509250925092565b600060208284031215612117578081fd5b5035919050565b60006020828403121561212f578081fd5b5051919050565b60008060408385031215612148578182fd5b82359150611f0860208401611e96565b600081518084526121708160208601602086016123cc565b601f01601f19169290920160200192915050565b600081516121968185602086016123cc565b9290920192915050565b600083516121b28184602088016123cc565b8351908301906121c68183602088016123cc565b01949350505050565b600080845482600182811c9150808316806121eb57607f831692505b602080841082141561220b57634e487b7160e01b87526022600452602487fd5b81801561221f57600181146122305761225c565b60ff1986168952848901965061225c565b60008b815260209020885b868110156122545781548b82015290850190830161223b565b505084890196505b50505050505061226c8185612184565b95945050505050565b60006001600160a01b038087168352808616602084015250836040830152608060608301526122a76080830184612158565b9695505050505050565b602081526000610d056020830184612158565b6060815260006122d76060830186612158565b82810360208401526122e98186612158565b905082810360408401526122a78185612158565b602081526000825160a0602084015261231960c0840182612158565b90506020840151601f19808584030160408601526123378383612158565b925060408601519150808584030160608601526123548383612158565b92506060860151915080858403016080860152506123728282612158565b915050608084015160a08401528091505092915050565b6000821982111561239c5761239c612462565b500190565b6000826123b0576123b0612478565b500490565b6000828210156123c7576123c7612462565b500390565b60005b838110156123e75781810151838201526020016123cf565b83811115610c1d5750506000910152565b600181811c9082168061240c57607f821691505b6020821081141561242d57634e487b7160e01b600052602260045260246000fd5b50919050565b600060001982141561244757612447612462565b5060010190565b60008261245d5761245d612478565b500690565b634e487b7160e01b600052601160045260246000fd5b634e487b7160e01b600052601260045260246000fd5b634e487b7160e01b600052604160045260246000fd5b6001600160e01b031981168114611d6d57600080fdfea26469706673582212200afd519c8285df94803c16590dfc61b789ab37d5db26f880d775f24fce8b0aaf64736f6c63430008040033",
  "devdoc": {
    "kind": "dev",
    "methods": {
      "approve(address,uint256)": {
        "details": "See {IERC721-approve}."
      },
      "approvePublicTrading(uint256,bool)": {
        "details": "Allows or prevents NFT to be traded on other marketplaces. Public trading will be allowed after the initial sale on Nidhi's marketplace. This ensures that every Nidhi NFT has an intrinsic value."
      },
      "balanceOf(address)": {
        "details": "See {IERC721-balanceOf}."
      },
      "burn(uint256)": {
        "details": "Burns the token, removes all its stored data and also ensures that references to it are removed from the Nidhi marketplace."
      },
      "createToken(string,string,string)": {
        "details": "Creates a new token with the provided name, description and image URI. Upon successful completion, the `TokenCreated` event will be emitted."
      },
      "creatorOf(uint256)": {
        "details": "Returns the address of the creator of the provided token id."
      },
      "getApproved(uint256)": {
        "details": "See {IERC721-getApproved}."
      },
      "isApprovedForAll(address,address)": {
        "details": "See {IERC721-isApprovedForAll}."
      },
      "name()": {
        "details": "See {IERC721Metadata-name}."
      },
      "ownerOf(uint256)": {
        "details": "See {IERC721-ownerOf}."
      },
      "safeTransferFrom(address,address,uint256)": {
        "details": "See {IERC721-safeTransferFrom}."
      },
      "safeTransferFrom(address,address,uint256,bytes)": {
        "details": "See {IERC721-safeTransferFrom}."
      },
      "setApprovalForAll(address,bool)": {
        "details": "See {IERC721-setApprovalForAll}."
      },
      "supportsInterface(bytes4)": {
        "details": "See {IERC165-supportsInterface}."
      },
      "symbol()": {
        "details": "See {IERC721Metadata-symbol}."
      },
      "tokenURI(uint256)": {
        "details": "See {IERC721Metadata-tokenURI}."
      },
      "transferFrom(address,address,uint256)": {
        "details": "See {IERC721-transferFrom}."
      }
    },
    "version": 1
  },
  "userdoc": {
    "kind": "user",
    "methods": {},
    "version": 1
  },
  "storageLayout": {
    "storage": [
      {
        "astId": 1562,
        "contract": "contracts/NidhiNFT.sol:NidhiNFT",
        "label": "_name",
        "offset": 0,
        "slot": "0",
        "type": "t_string_storage"
      },
      {
        "astId": 1564,
        "contract": "contracts/NidhiNFT.sol:NidhiNFT",
        "label": "_symbol",
        "offset": 0,
        "slot": "1",
        "type": "t_string_storage"
      },
      {
        "astId": 1568,
        "contract": "contracts/NidhiNFT.sol:NidhiNFT",
        "label": "_owners",
        "offset": 0,
        "slot": "2",
        "type": "t_mapping(t_uint256,t_address)"
      },
      {
        "astId": 1572,
        "contract": "contracts/NidhiNFT.sol:NidhiNFT",
        "label": "_balances",
        "offset": 0,
        "slot": "3",
        "type": "t_mapping(t_address,t_uint256)"
      },
      {
        "astId": 1576,
        "contract": "contracts/NidhiNFT.sol:NidhiNFT",
        "label": "_tokenApprovals",
        "offset": 0,
        "slot": "4",
        "type": "t_mapping(t_uint256,t_address)"
      },
      {
        "astId": 1582,
        "contract": "contracts/NidhiNFT.sol:NidhiNFT",
        "label": "_operatorApprovals",
        "offset": 0,
        "slot": "5",
        "type": "t_mapping(t_address,t_mapping(t_address,t_bool))"
      },
      {
        "astId": 7280,
        "contract": "contracts/NidhiNFT.sol:NidhiNFT",
        "label": "_tokenIds",
        "offset": 0,
        "slot": "6",
        "type": "t_uint256"
      },
      {
        "astId": 7282,
        "contract": "contracts/NidhiNFT.sol:NidhiNFT",
        "label": "_owner",
        "offset": 0,
        "slot": "7",
        "type": "t_address"
      },
      {
        "astId": 7284,
        "contract": "contracts/NidhiNFT.sol:NidhiNFT",
        "label": "_marketBaseURI",
        "offset": 0,
        "slot": "8",
        "type": "t_string_storage"
      },
      {
        "astId": 7286,
        "contract": "contracts/NidhiNFT.sol:NidhiNFT",
        "label": "_tokenBaseURI",
        "offset": 0,
        "slot": "9",
        "type": "t_string_storage"
      },
      {
        "astId": 7293,
        "contract": "contracts/NidhiNFT.sol:NidhiNFT",
        "label": "_tokenCreators",
        "offset": 0,
        "slot": "10",
        "type": "t_mapping(t_uint256,t_address)"
      },
      {
        "astId": 7297,
        "contract": "contracts/NidhiNFT.sol:NidhiNFT",
        "label": "_publiclyTradeable",
        "offset": 0,
        "slot": "11",
        "type": "t_mapping(t_uint256,t_bool)"
      },
      {
        "astId": 7302,
        "contract": "contracts/NidhiNFT.sol:NidhiNFT",
        "label": "_metadata",
        "offset": 0,
        "slot": "12",
        "type": "t_mapping(t_uint256,t_struct(StoredMetadata)7278_storage)"
      }
    ],
    "types": {
      "t_address": {
        "encoding": "inplace",
        "label": "address",
        "numberOfBytes": "20"
      },
      "t_bool": {
        "encoding": "inplace",
        "label": "bool",
        "numberOfBytes": "1"
      },
      "t_mapping(t_address,t_bool)": {
        "encoding": "mapping",
        "key": "t_address",
        "label": "mapping(address => bool)",
        "numberOfBytes": "32",
        "value": "t_bool"
      },
      "t_mapping(t_address,t_mapping(t_address,t_bool))": {
        "encoding": "mapping",
        "key": "t_address",
        "label": "mapping(address => mapping(address => bool))",
        "numberOfBytes": "32",
        "value": "t_mapping(t_address,t_bool)"
      },
      "t_mapping(t_address,t_uint256)": {
        "encoding": "mapping",
        "key": "t_address",
        "label": "mapping(address => uint256)",
        "numberOfBytes": "32",
        "value": "t_uint256"
      },
      "t_mapping(t_uint256,t_address)": {
        "encoding": "mapping",
        "key": "t_uint256",
        "label": "mapping(uint256 => address)",
        "numberOfBytes": "32",
        "value": "t_address"
      },
      "t_mapping(t_uint256,t_bool)": {
        "encoding": "mapping",
        "key": "t_uint256",
        "label": "mapping(uint256 => bool)",
        "numberOfBytes": "32",
        "value": "t_bool"
      },
      "t_mapping(t_uint256,t_struct(StoredMetadata)7278_storage)": {
        "encoding": "mapping",
        "key": "t_uint256",
        "label": "mapping(uint256 => struct NidhiNFT.StoredMetadata)",
        "numberOfBytes": "32",
        "value": "t_struct(StoredMetadata)7278_storage"
      },
      "t_string_storage": {
        "encoding": "bytes",
        "label": "string",
        "numberOfBytes": "32"
      },
      "t_struct(StoredMetadata)7278_storage": {
        "encoding": "inplace",
        "label": "struct NidhiNFT.StoredMetadata",
        "members": [
          {
            "astId": 7273,
            "contract": "contracts/NidhiNFT.sol:NidhiNFT",
            "label": "image",
            "offset": 0,
            "slot": "0",
            "type": "t_string_storage"
          },
          {
            "astId": 7275,
            "contract": "contracts/NidhiNFT.sol:NidhiNFT",
            "label": "description",
            "offset": 0,
            "slot": "1",
            "type": "t_string_storage"
          },
          {
            "astId": 7277,
            "contract": "contracts/NidhiNFT.sol:NidhiNFT",
            "label": "name",
            "offset": 0,
            "slot": "2",
            "type": "t_string_storage"
          }
        ],
        "numberOfBytes": "96"
      },
      "t_uint256": {
        "encoding": "inplace",
        "label": "uint256",
        "numberOfBytes": "32"
      }
    }
  }
}