{
  "address": "0x8dCf52e97f0Cb64d88ceE6Cd8B35054BC8A77D9E",
  "abi": [
    {
      "inputs": [
        {
          "internalType": "address",
          "name": "tokenAddress",
          "type": "address"
        },
        {
          "internalType": "address",
          "name": "stakingTokenAddress",
          "type": "address"
        },
        {
          "internalType": "address",
          "name": "stakingContractAddress",
          "type": "address"
        },
        {
          "internalType": "address",
          "name": "profileContractAddress",
          "type": "address"
        },
        {
          "internalType": "address",
          "name": "routerAddress",
          "type": "address"
        }
      ],
      "stateMutability": "nonpayable",
      "type": "constructor"
    },
    {
      "anonymous": false,
      "inputs": [
        {
          "indexed": true,
          "internalType": "uint256",
          "name": "itemId",
          "type": "uint256"
        },
        {
          "indexed": true,
          "internalType": "address",
          "name": "nftContract",
          "type": "address"
        },
        {
          "indexed": true,
          "internalType": "uint256",
          "name": "tokenId",
          "type": "uint256"
        },
        {
          "indexed": false,
          "internalType": "address",
          "name": "seller",
          "type": "address"
        },
        {
          "indexed": false,
          "internalType": "address",
          "name": "owner",
          "type": "address"
        },
        {
          "indexed": false,
          "internalType": "address",
          "name": "paymentToken",
          "type": "address"
        },
        {
          "indexed": false,
          "internalType": "uint256",
          "name": "price",
          "type": "uint256"
        },
        {
          "indexed": false,
          "internalType": "uint256",
          "name": "payoutAmount",
          "type": "uint256"
        },
        {
          "indexed": false,
          "internalType": "uint256",
          "name": "stakedAmount",
          "type": "uint256"
        }
      ],
      "name": "MarketItemCreated",
      "type": "event"
    },
    {
      "anonymous": false,
      "inputs": [
        {
          "indexed": true,
          "internalType": "uint256",
          "name": "itemId",
          "type": "uint256"
        },
        {
          "indexed": true,
          "internalType": "address",
          "name": "nftContract",
          "type": "address"
        },
        {
          "indexed": true,
          "internalType": "uint256",
          "name": "tokenId",
          "type": "uint256"
        }
      ],
      "name": "MarketItemDelisted",
      "type": "event"
    },
    {
      "anonymous": false,
      "inputs": [
        {
          "indexed": true,
          "internalType": "uint256",
          "name": "itemId",
          "type": "uint256"
        },
        {
          "indexed": true,
          "internalType": "address",
          "name": "nftContract",
          "type": "address"
        },
        {
          "indexed": true,
          "internalType": "uint256",
          "name": "tokenId",
          "type": "uint256"
        }
      ],
      "name": "MarketItemImported",
      "type": "event"
    },
    {
      "anonymous": false,
      "inputs": [
        {
          "indexed": true,
          "internalType": "uint256",
          "name": "itemId",
          "type": "uint256"
        },
        {
          "indexed": true,
          "internalType": "address",
          "name": "nftContract",
          "type": "address"
        },
        {
          "indexed": true,
          "internalType": "uint256",
          "name": "tokenId",
          "type": "uint256"
        },
        {
          "indexed": false,
          "internalType": "address",
          "name": "buyer",
          "type": "address"
        },
        {
          "indexed": false,
          "internalType": "address",
          "name": "paymentToken",
          "type": "address"
        },
        {
          "indexed": false,
          "internalType": "uint256",
          "name": "price",
          "type": "uint256"
        },
        {
          "indexed": false,
          "internalType": "uint256",
          "name": "stakedAmount",
          "type": "uint256"
        },
        {
          "indexed": false,
          "internalType": "uint256",
          "name": "feeAmount",
          "type": "uint256"
        }
      ],
      "name": "MarketItemSold",
      "type": "event"
    },
    {
      "anonymous": false,
      "inputs": [
        {
          "indexed": true,
          "internalType": "uint256",
          "name": "itemId",
          "type": "uint256"
        },
        {
          "indexed": true,
          "internalType": "address",
          "name": "owner",
          "type": "address"
        },
        {
          "indexed": false,
          "internalType": "uint256",
          "name": "value",
          "type": "uint256"
        },
        {
          "indexed": false,
          "internalType": "uint256",
          "name": "newStakedAmount",
          "type": "uint256"
        }
      ],
      "name": "PassiveIncomeRedeemed",
      "type": "event"
    },
    {
      "inputs": [],
      "name": "GURU",
      "outputs": [
        {
          "internalType": "contract IERC20",
          "name": "",
          "type": "address"
        }
      ],
      "stateMutability": "view",
      "type": "function"
    },
    {
      "inputs": [],
      "name": "SGURU",
      "outputs": [
        {
          "internalType": "contract StakingToken",
          "name": "",
          "type": "address"
        }
      ],
      "stateMutability": "view",
      "type": "function"
    },
    {
      "inputs": [
        {
          "internalType": "address",
          "name": "tokenAddress",
          "type": "address"
        },
        {
          "internalType": "uint256",
          "name": "minPrice_",
          "type": "uint256"
        },
        {
          "internalType": "address[]",
          "name": "routerPath",
          "type": "address[]"
        }
      ],
      "name": "addPaymentToken",
      "outputs": [],
      "stateMutability": "nonpayable",
      "type": "function"
    },
    {
      "inputs": [
        {
          "internalType": "uint256",
          "name": "itemId",
          "type": "uint256"
        },
        {
          "internalType": "address[]",
          "name": "buyerAddresses",
          "type": "address[]"
        }
      ],
      "name": "addToBuyerWhitelist",
      "outputs": [],
      "stateMutability": "nonpayable",
      "type": "function"
    },
    {
      "inputs": [
        {
          "internalType": "address",
          "name": "creator",
          "type": "address"
        },
        {
          "internalType": "address",
          "name": "nftContract",
          "type": "address"
        },
        {
          "internalType": "uint256",
          "name": "tokenId",
          "type": "uint256"
        }
      ],
      "name": "addTokenToCreatorCollection",
      "outputs": [],
      "stateMutability": "nonpayable",
      "type": "function"
    },
    {
      "inputs": [
        {
          "internalType": "address",
          "name": "nftContract",
          "type": "address"
        }
      ],
      "name": "addWhitelistedNFT",
      "outputs": [],
      "stateMutability": "nonpayable",
      "type": "function"
    },
    {
      "inputs": [
        {
          "internalType": "address",
          "name": "creator",
          "type": "address"
        },
        {
          "internalType": "address",
          "name": "nftContract",
          "type": "address"
        },
        {
          "internalType": "uint256",
          "name": "tokenId",
          "type": "uint256"
        }
      ],
      "name": "afterBurnToken",
      "outputs": [],
      "stateMutability": "nonpayable",
      "type": "function"
    },
    {
      "inputs": [
        {
          "internalType": "address",
          "name": "who",
          "type": "address"
        }
      ],
      "name": "collectionSizesByOwner",
      "outputs": [
        {
          "internalType": "uint256",
          "name": "created_",
          "type": "uint256"
        },
        {
          "internalType": "uint256",
          "name": "owned_",
          "type": "uint256"
        }
      ],
      "stateMutability": "view",
      "type": "function"
    },
    {
      "inputs": [
        {
          "internalType": "uint256",
          "name": "itemId",
          "type": "uint256"
        }
      ],
      "name": "delistMarketItem",
      "outputs": [],
      "stateMutability": "nonpayable",
      "type": "function"
    },
    {
      "inputs": [],
      "name": "fee",
      "outputs": [
        {
          "internalType": "uint256",
          "name": "",
          "type": "uint256"
        }
      ],
      "stateMutability": "view",
      "type": "function"
    },
    {
      "inputs": [],
      "name": "feeCollector",
      "outputs": [
        {
          "internalType": "address",
          "name": "",
          "type": "address"
        }
      ],
      "stateMutability": "view",
      "type": "function"
    },
    {
      "inputs": [
        {
          "internalType": "uint256[]",
          "name": "itemIds",
          "type": "uint256[]"
        }
      ],
      "name": "fetchItems",
      "outputs": [
        {
          "components": [
            {
              "internalType": "uint256",
              "name": "itemId",
              "type": "uint256"
            },
            {
              "internalType": "address",
              "name": "nftContract",
              "type": "address"
            },
            {
              "internalType": "uint256",
              "name": "tokenId",
              "type": "uint256"
            },
            {
              "internalType": "address",
              "name": "creator",
              "type": "address"
            },
            {
              "internalType": "string",
              "name": "creatorName",
              "type": "string"
            },
            {
              "internalType": "string",
              "name": "creatorDeeplink",
              "type": "string"
            },
            {
              "internalType": "address",
              "name": "owner",
              "type": "address"
            },
            {
              "internalType": "string",
              "name": "ownerName",
              "type": "string"
            },
            {
              "internalType": "string",
              "name": "ownerDeeplink",
              "type": "string"
            },
            {
              "internalType": "bool",
              "name": "listed",
              "type": "bool"
            },
            {
              "internalType": "address",
              "name": "seller",
              "type": "address"
            },
            {
              "internalType": "string",
              "name": "sellerName",
              "type": "string"
            },
            {
              "internalType": "string",
              "name": "sellerDeeplink",
              "type": "string"
            },
            {
              "internalType": "address",
              "name": "paymentToken",
              "type": "address"
            },
            {
              "internalType": "uint256",
              "name": "price",
              "type": "uint256"
            },
            {
              "internalType": "uint256",
              "name": "payoutPercentage",
              "type": "uint256"
            },
            {
              "internalType": "uint256",
              "name": "totalValue",
              "type": "uint256"
            },
            {
              "internalType": "uint256",
              "name": "redeemableValue",
              "type": "uint256"
            }
          ],
          "internalType": "struct NidhiMarket.MarketItemDetails[]",
          "name": "items",
          "type": "tuple[]"
        }
      ],
      "stateMutability": "view",
      "type": "function"
    },
    {
      "inputs": [
        {
          "internalType": "address",
          "name": "creator",
          "type": "address"
        },
        {
          "internalType": "uint256",
          "name": "lastItemId",
          "type": "uint256"
        },
        {
          "internalType": "uint256",
          "name": "pageSize",
          "type": "uint256"
        },
        {
          "internalType": "bool",
          "name": "ascending",
          "type": "bool"
        }
      ],
      "name": "fetchItemsByCreator",
      "outputs": [
        {
          "components": [
            {
              "internalType": "uint256",
              "name": "itemId",
              "type": "uint256"
            },
            {
              "internalType": "address",
              "name": "nftContract",
              "type": "address"
            },
            {
              "internalType": "uint256",
              "name": "tokenId",
              "type": "uint256"
            },
            {
              "internalType": "address",
              "name": "creator",
              "type": "address"
            },
            {
              "internalType": "string",
              "name": "creatorName",
              "type": "string"
            },
            {
              "internalType": "string",
              "name": "creatorDeeplink",
              "type": "string"
            },
            {
              "internalType": "address",
              "name": "owner",
              "type": "address"
            },
            {
              "internalType": "string",
              "name": "ownerName",
              "type": "string"
            },
            {
              "internalType": "string",
              "name": "ownerDeeplink",
              "type": "string"
            },
            {
              "internalType": "bool",
              "name": "listed",
              "type": "bool"
            },
            {
              "internalType": "address",
              "name": "seller",
              "type": "address"
            },
            {
              "internalType": "string",
              "name": "sellerName",
              "type": "string"
            },
            {
              "internalType": "string",
              "name": "sellerDeeplink",
              "type": "string"
            },
            {
              "internalType": "address",
              "name": "paymentToken",
              "type": "address"
            },
            {
              "internalType": "uint256",
              "name": "price",
              "type": "uint256"
            },
            {
              "internalType": "uint256",
              "name": "payoutPercentage",
              "type": "uint256"
            },
            {
              "internalType": "uint256",
              "name": "totalValue",
              "type": "uint256"
            },
            {
              "internalType": "uint256",
              "name": "redeemableValue",
              "type": "uint256"
            }
          ],
          "internalType": "struct NidhiMarket.MarketItemDetails[]",
          "name": "items",
          "type": "tuple[]"
        }
      ],
      "stateMutability": "view",
      "type": "function"
    },
    {
      "inputs": [
        {
          "internalType": "address",
          "name": "owner",
          "type": "address"
        },
        {
          "internalType": "uint256",
          "name": "lastItemId",
          "type": "uint256"
        },
        {
          "internalType": "uint256",
          "name": "pageSize",
          "type": "uint256"
        },
        {
          "internalType": "bool",
          "name": "ascending",
          "type": "bool"
        }
      ],
      "name": "fetchItemsByOwner",
      "outputs": [
        {
          "components": [
            {
              "internalType": "uint256",
              "name": "itemId",
              "type": "uint256"
            },
            {
              "internalType": "address",
              "name": "nftContract",
              "type": "address"
            },
            {
              "internalType": "uint256",
              "name": "tokenId",
              "type": "uint256"
            },
            {
              "internalType": "address",
              "name": "creator",
              "type": "address"
            },
            {
              "internalType": "string",
              "name": "creatorName",
              "type": "string"
            },
            {
              "internalType": "string",
              "name": "creatorDeeplink",
              "type": "string"
            },
            {
              "internalType": "address",
              "name": "owner",
              "type": "address"
            },
            {
              "internalType": "string",
              "name": "ownerName",
              "type": "string"
            },
            {
              "internalType": "string",
              "name": "ownerDeeplink",
              "type": "string"
            },
            {
              "internalType": "bool",
              "name": "listed",
              "type": "bool"
            },
            {
              "internalType": "address",
              "name": "seller",
              "type": "address"
            },
            {
              "internalType": "string",
              "name": "sellerName",
              "type": "string"
            },
            {
              "internalType": "string",
              "name": "sellerDeeplink",
              "type": "string"
            },
            {
              "internalType": "address",
              "name": "paymentToken",
              "type": "address"
            },
            {
              "internalType": "uint256",
              "name": "price",
              "type": "uint256"
            },
            {
              "internalType": "uint256",
              "name": "payoutPercentage",
              "type": "uint256"
            },
            {
              "internalType": "uint256",
              "name": "totalValue",
              "type": "uint256"
            },
            {
              "internalType": "uint256",
              "name": "redeemableValue",
              "type": "uint256"
            }
          ],
          "internalType": "struct NidhiMarket.MarketItemDetails[]",
          "name": "items",
          "type": "tuple[]"
        }
      ],
      "stateMutability": "view",
      "type": "function"
    },
    {
      "inputs": [
        {
          "internalType": "uint256",
          "name": "lastItemId",
          "type": "uint256"
        },
        {
          "internalType": "uint256",
          "name": "pageSize",
          "type": "uint256"
        },
        {
          "internalType": "bool",
          "name": "ascending",
          "type": "bool"
        }
      ],
      "name": "fetchMarketItems",
      "outputs": [
        {
          "components": [
            {
              "internalType": "uint256",
              "name": "itemId",
              "type": "uint256"
            },
            {
              "internalType": "address",
              "name": "nftContract",
              "type": "address"
            },
            {
              "internalType": "uint256",
              "name": "tokenId",
              "type": "uint256"
            },
            {
              "internalType": "address",
              "name": "creator",
              "type": "address"
            },
            {
              "internalType": "string",
              "name": "creatorName",
              "type": "string"
            },
            {
              "internalType": "string",
              "name": "creatorDeeplink",
              "type": "string"
            },
            {
              "internalType": "address",
              "name": "owner",
              "type": "address"
            },
            {
              "internalType": "string",
              "name": "ownerName",
              "type": "string"
            },
            {
              "internalType": "string",
              "name": "ownerDeeplink",
              "type": "string"
            },
            {
              "internalType": "bool",
              "name": "listed",
              "type": "bool"
            },
            {
              "internalType": "address",
              "name": "seller",
              "type": "address"
            },
            {
              "internalType": "string",
              "name": "sellerName",
              "type": "string"
            },
            {
              "internalType": "string",
              "name": "sellerDeeplink",
              "type": "string"
            },
            {
              "internalType": "address",
              "name": "paymentToken",
              "type": "address"
            },
            {
              "internalType": "uint256",
              "name": "price",
              "type": "uint256"
            },
            {
              "internalType": "uint256",
              "name": "payoutPercentage",
              "type": "uint256"
            },
            {
              "internalType": "uint256",
              "name": "totalValue",
              "type": "uint256"
            },
            {
              "internalType": "uint256",
              "name": "redeemableValue",
              "type": "uint256"
            }
          ],
          "internalType": "struct NidhiMarket.MarketItemDetails[]",
          "name": "items",
          "type": "tuple[]"
        }
      ],
      "stateMutability": "view",
      "type": "function"
    },
    {
      "inputs": [
        {
          "internalType": "uint256",
          "name": "itemId",
          "type": "uint256"
        }
      ],
      "name": "getMarketItem",
      "outputs": [
        {
          "components": [
            {
              "internalType": "uint256",
              "name": "itemId",
              "type": "uint256"
            },
            {
              "internalType": "address",
              "name": "nftContract",
              "type": "address"
            },
            {
              "internalType": "uint256",
              "name": "tokenId",
              "type": "uint256"
            },
            {
              "internalType": "address",
              "name": "creator",
              "type": "address"
            },
            {
              "internalType": "string",
              "name": "creatorName",
              "type": "string"
            },
            {
              "internalType": "string",
              "name": "creatorDeeplink",
              "type": "string"
            },
            {
              "internalType": "address",
              "name": "owner",
              "type": "address"
            },
            {
              "internalType": "string",
              "name": "ownerName",
              "type": "string"
            },
            {
              "internalType": "string",
              "name": "ownerDeeplink",
              "type": "string"
            },
            {
              "internalType": "bool",
              "name": "listed",
              "type": "bool"
            },
            {
              "internalType": "address",
              "name": "seller",
              "type": "address"
            },
            {
              "internalType": "string",
              "name": "sellerName",
              "type": "string"
            },
            {
              "internalType": "string",
              "name": "sellerDeeplink",
              "type": "string"
            },
            {
              "internalType": "address",
              "name": "paymentToken",
              "type": "address"
            },
            {
              "internalType": "uint256",
              "name": "price",
              "type": "uint256"
            },
            {
              "internalType": "uint256",
              "name": "payoutPercentage",
              "type": "uint256"
            },
            {
              "internalType": "uint256",
              "name": "totalValue",
              "type": "uint256"
            },
            {
              "internalType": "uint256",
              "name": "redeemableValue",
              "type": "uint256"
            }
          ],
          "internalType": "struct NidhiMarket.MarketItemDetails",
          "name": "",
          "type": "tuple"
        }
      ],
      "stateMutability": "view",
      "type": "function"
    },
    {
      "inputs": [
        {
          "internalType": "address",
          "name": "nftAddress",
          "type": "address"
        },
        {
          "internalType": "uint256",
          "name": "tokenId",
          "type": "uint256"
        }
      ],
      "name": "getMarketItemId",
      "outputs": [
        {
          "internalType": "uint256",
          "name": "",
          "type": "uint256"
        }
      ],
      "stateMutability": "view",
      "type": "function"
    },
    {
      "inputs": [],
      "name": "getPaymentTokens",
      "outputs": [
        {
          "internalType": "address[]",
          "name": "",
          "type": "address[]"
        }
      ],
      "stateMutability": "view",
      "type": "function"
    },
    {
      "inputs": [
        {
          "internalType": "address",
          "name": "tokenAddress",
          "type": "address"
        }
      ],
      "name": "getSwapRoute",
      "outputs": [
        {
          "internalType": "address[]",
          "name": "",
          "type": "address[]"
        }
      ],
      "stateMutability": "view",
      "type": "function"
    },
    {
      "inputs": [
        {
          "internalType": "address",
          "name": "nftContract",
          "type": "address"
        },
        {
          "internalType": "uint256",
          "name": "tokenId",
          "type": "uint256"
        }
      ],
      "name": "importMarketItem",
      "outputs": [],
      "stateMutability": "nonpayable",
      "type": "function"
    },
    {
      "inputs": [
        {
          "internalType": "uint256",
          "name": "itemId",
          "type": "uint256"
        }
      ],
      "name": "intrinsicValue",
      "outputs": [
        {
          "internalType": "uint256",
          "name": "",
          "type": "uint256"
        }
      ],
      "stateMutability": "view",
      "type": "function"
    },
    {
      "inputs": [
        {
          "internalType": "address",
          "name": "nftContract",
          "type": "address"
        },
        {
          "internalType": "uint256",
          "name": "tokenId",
          "type": "uint256"
        },
        {
          "internalType": "address",
          "name": "paymentToken",
          "type": "address"
        },
        {
          "internalType": "uint256",
          "name": "price",
          "type": "uint256"
        },
        {
          "internalType": "uint16",
          "name": "stakingPercentage",
          "type": "uint16"
        }
      ],
      "name": "listMarketItem",
      "outputs": [],
      "stateMutability": "nonpayable",
      "type": "function"
    },
    {
      "inputs": [
        {
          "internalType": "address",
          "name": "",
          "type": "address"
        }
      ],
      "name": "minPrice",
      "outputs": [
        {
          "internalType": "uint256",
          "name": "",
          "type": "uint256"
        }
      ],
      "stateMutability": "view",
      "type": "function"
    },
    {
      "inputs": [],
      "name": "minStakingPercentage",
      "outputs": [
        {
          "internalType": "uint256",
          "name": "",
          "type": "uint256"
        }
      ],
      "stateMutability": "view",
      "type": "function"
    },
    {
      "inputs": [],
      "name": "profile",
      "outputs": [
        {
          "internalType": "contract NidhiProfile",
          "name": "",
          "type": "address"
        }
      ],
      "stateMutability": "view",
      "type": "function"
    },
    {
      "inputs": [
        {
          "internalType": "uint256",
          "name": "itemId",
          "type": "uint256"
        }
      ],
      "name": "purchaseMarketItem",
      "outputs": [],
      "stateMutability": "nonpayable",
      "type": "function"
    },
    {
      "inputs": [
        {
          "internalType": "uint256",
          "name": "itemId",
          "type": "uint256"
        },
        {
          "internalType": "uint256",
          "name": "amount",
          "type": "uint256"
        }
      ],
      "name": "redeem",
      "outputs": [],
      "stateMutability": "nonpayable",
      "type": "function"
    },
    {
      "inputs": [
        {
          "internalType": "uint256",
          "name": "itemId",
          "type": "uint256"
        }
      ],
      "name": "redeemable",
      "outputs": [
        {
          "internalType": "uint256",
          "name": "",
          "type": "uint256"
        }
      ],
      "stateMutability": "view",
      "type": "function"
    },
    {
      "inputs": [
        {
          "internalType": "address",
          "name": "tokenAddress",
          "type": "address"
        }
      ],
      "name": "removePaymentToken",
      "outputs": [],
      "stateMutability": "nonpayable",
      "type": "function"
    },
    {
      "inputs": [
        {
          "internalType": "address",
          "name": "nftAddress",
          "type": "address"
        },
        {
          "internalType": "uint256",
          "name": "tokenId",
          "type": "uint256"
        }
      ],
      "name": "removeTokenFromOwnerCollection",
      "outputs": [],
      "stateMutability": "nonpayable",
      "type": "function"
    },
    {
      "inputs": [
        {
          "internalType": "address",
          "name": "nftContract",
          "type": "address"
        }
      ],
      "name": "removeWhitelistedNFT",
      "outputs": [],
      "stateMutability": "nonpayable",
      "type": "function"
    },
    {
      "inputs": [
        {
          "internalType": "uint256",
          "name": "itemId",
          "type": "uint256"
        }
      ],
      "name": "resetBuyerWhitelist",
      "outputs": [],
      "stateMutability": "nonpayable",
      "type": "function"
    },
    {
      "inputs": [],
      "name": "router",
      "outputs": [
        {
          "internalType": "contract IRouter",
          "name": "",
          "type": "address"
        }
      ],
      "stateMutability": "view",
      "type": "function"
    },
    {
      "inputs": [
        {
          "internalType": "uint256",
          "name": "fee_",
          "type": "uint256"
        }
      ],
      "name": "setFee",
      "outputs": [],
      "stateMutability": "nonpayable",
      "type": "function"
    },
    {
      "inputs": [
        {
          "internalType": "address",
          "name": "feeCollector_",
          "type": "address"
        }
      ],
      "name": "setFeeCollector",
      "outputs": [],
      "stateMutability": "nonpayable",
      "type": "function"
    },
    {
      "inputs": [
        {
          "internalType": "address",
          "name": "token",
          "type": "address"
        },
        {
          "internalType": "uint256",
          "name": "minPrice_",
          "type": "uint256"
        }
      ],
      "name": "setMinPrice",
      "outputs": [],
      "stateMutability": "nonpayable",
      "type": "function"
    },
    {
      "inputs": [
        {
          "internalType": "uint256",
          "name": "minStakingPercentage_",
          "type": "uint256"
        }
      ],
      "name": "setMinStakingPercentage",
      "outputs": [],
      "stateMutability": "nonpayable",
      "type": "function"
    },
    {
      "inputs": [],
      "name": "staking",
      "outputs": [
        {
          "internalType": "contract Staking",
          "name": "",
          "type": "address"
        }
      ],
      "stateMutability": "view",
      "type": "function"
    },
    {
      "inputs": [
        {
          "internalType": "address",
          "name": "owner",
          "type": "address"
        }
      ],
      "name": "totalValueByOwner",
      "outputs": [
        {
          "internalType": "uint256",
          "name": "total",
          "type": "uint256"
        },
        {
          "internalType": "uint256",
          "name": "redeemable_",
          "type": "uint256"
        }
      ],
      "stateMutability": "view",
      "type": "function"
    },
    {
      "inputs": [
        {
          "internalType": "address",
          "name": "newOwner",
          "type": "address"
        }
      ],
      "name": "transferOwnership",
      "outputs": [],
      "stateMutability": "nonpayable",
      "type": "function"
    }
  ],
  "transactionHash": "0x2a8f572e38e387f114c17b747c12df8297187bc8faf238dc9f7d6ff672ebdec7",
  "args": [
    "0x28701a232B566729381C53E47a3f53b08F50eb4C",
    "0x7F244A5DA32D3C1727e604Cb16554bFae89579A8",
    "0xf7552ecff8f6D58d3762876d886A581c0f275968",
    "0xDA47f407ba7170D2a453851384222C6c1c07410B",
    "0x1b02dA8Cb0d097eB8D57A175b88c7D8b47997506"
  ],
  "solcInputHash": "c4147c38b87fc156f38be2c3f31aef67",
  "bytecode": "0x6101206040526103e86002553480156200001857600080fd5b5060405162006968380380620069688339810160408190526200003b9162000165565b6001600055600680546001600160a01b0319163317905560405162000060906200013a565b604051809103906000f0801580156200007d573d6000803e3d6000fd5b50601180546001600160a01b039283166001600160a01b0319918216179091556001600160601b0319606088811b821660805296871b811660a05294861b851660c05292851b841660e052931b909116610100526010805460018181019092557f1b6847dc741a1b0cd08d278845f9d819d87b734759afb55fe2de5cb82a9ae6720180549092169390921692831790556000918252600860209081526040808420805460ff1916841790559190529020633b9aca009055620001d4565b6106c080620062a883390190565b80516001600160a01b03811681146200016057600080fd5b919050565b600080600080600060a086880312156200017d578081fd5b620001888662000148565b9450620001986020870162000148565b9350620001a86040870162000148565b9250620001b86060870162000148565b9150620001c86080870162000148565b90509295509295909350565b60805160601c60a05160601c60c05160601c60e05160601c6101005160601c615fdf620002c9600039600081816105a501528181611acf0152611b7501526000818161047e015281816143f9015281816144a401528181614617015281816146c00152818161482201526148cb01526000818161034801528181611e4f01528181611f170152611fb10152600081816104b801528181610f790152818161100e0152818161173b0152818161177901528181612045015281816120ef0152614bc2015260008181610605015281816109ff01528181610a4501528181610ac701528181611e7e01526125c90152615fdf6000f3fe608060405234801561001057600080fd5b50600436106102485760003560e01c8063a51254211161013b578063ca5e553e116100b8578063f887ea401161007c578063f887ea40146105a0578063fa00d03d146105c7578063fa485b68146105da578063fdd1646d146105ed578063ff402d231461060057600080fd5b8063ca5e553e14610533578063d1eaa0641461053b578063ddca3f4314610571578063eb556b501461057a578063f2fde38b1461058d57600080fd5b8063b833d7c8116100ff578063b833d7c8146104b3578063bd9a549f146104da578063c415b95c146104ed578063c68a0e1614610500578063c7be7a491461051357600080fd5b8063a512542114610440578063a82f15c214610453578063ab1a536914610466578063ab60636c14610479578063b4d918e5146104a057600080fd5b80634e7f1e20116101c95780637cbc23731161018d5780637cbc2373146103e1578063825a926f146103f45780638465093e146104075780638c77b5b71461041a578063a42dce801461042d57600080fd5b80634e7f1e201461038257806369fe0e2d146103955780636c0e3b09146103a85780637042bdb9146103bb5780637488cc8f146103ce57600080fd5b80632b47a569116102105780632b47a569146102e65780633e7d7feb146102fd578063455bf0b61461031057806347d5d502146103305780634cf088d91461034357600080fd5b806314d500351461024d578063210009cf1461027657806327df59ba1461028b578063285c4880146102b3578063295f36de146102c6575b600080fd5b61026061025b36600461515c565b610627565b60405161026d919061565f565b60405180910390f35b610289610284366004614f96565b6107ca565b005b61029e610299366004614f96565b610838565b6040805192835260208301919091520161026d565b6102896102c136600461509d565b61096d565b6102d96102d4366004614f96565b610c28565b60405161026d9190615612565b6102ef60025481565b60405190815260200161026d565b61028961030b366004615376565b610c9e565b6102ef61031e366004614f96565b60016020526000908152604090205481565b61028961033e36600461500e565b610d3d565b61036a7f000000000000000000000000000000000000000000000000000000000000000081565b6040516001600160a01b03909116815260200161026d565b610289610390366004614fce565b610e49565b6102896103a3366004615376565b61116e565b6102896103b636600461500e565b611253565b61029e6103c9366004614f96565b611386565b6102606103dc3660046151a5565b6114f5565b6102896103ef3660046153f0565b6115f4565b6102ef610402366004615376565b611879565b610289610415366004614f96565b61188d565b610289610428366004615376565b6118f9565b61028961043b366004614f96565b6124b2565b61028961044e366004614f96565b61257f565b610289610461366004614fce565b6127a6565b610260610474366004615411565b612910565b61036a7f000000000000000000000000000000000000000000000000000000000000000081565b6102606104ae36600461515c565b612a9f565b61036a7f000000000000000000000000000000000000000000000000000000000000000081565b6102ef6104e8366004615376565b612c34565b60045461036a906001600160a01b031681565b61028961050e366004615376565b612c48565b610526610521366004615376565b6130ac565b60405161026d91906156d3565b6102d96130d1565b6102ef61054936600461500e565b6001600160a01b03919091166000908152600c60209081526040808320938352929052205490565b6102ef60035481565b610289610588366004615376565b613133565b61028961059b366004614f96565b61324c565b61036a7f000000000000000000000000000000000000000000000000000000000000000081565b6102896105d53660046153a6565b6132b6565b6102896105e836600461500e565b61355a565b6102896105fb366004615039565b613891565b61036a7f000000000000000000000000000000000000000000000000000000000000000081565b6001600160a01b038085166000908152600b60205260409020546060911680156107c15760008061065a838887896140e2565b915091508067ffffffffffffffff81111561068557634e487b7160e01b600052604160045260246000fd5b6040519080825280602002602001820160405280156106be57816020015b6106ab614dea565b8152602001906001900390816106a35790505b5093508160005b828110156107bc576040808301516000908152600d602052206106e790614373565b86828151811061070757634e487b7160e01b600052603260045260246000fd5b60209081029190910181019190915260408051630e891c2760e01b815284516004820152918401516024830152830151604482015287151560648201526001600160a01b03861690630e891c279060840160606040518083038186803b15801561077057600080fd5b505afa158015610784573d6000803e3d6000fd5b505050506040513d601f19601f820116820180604052508101906107a8919061531b565b9150806107b48161585f565b9150506106c5565b505050505b50949350505050565b6006546001600160a01b031633146108175760405162461bcd60e51b81526020600482015260176024820152600080516020615f8a83398151915260448201526064015b60405180910390fd5b6001600160a01b03166000908152600760205260409020805460ff19169055565b6001600160a01b038082166000908152600a6020526040812054909182911680156108d157806001600160a01b031663949d225d6040518163ffffffff1660e01b815260040160206040518083038186803b15801561089657600080fd5b505afa1580156108aa573d6000803e3d6000fd5b505050506040513d601f19601f820116820180604052508101906108ce919061538e565b92505b6001600160a01b038085166000908152600b602052604090205416801561096657806001600160a01b031663949d225d6040518163ffffffff1660e01b815260040160206040518083038186803b15801561092b57600080fd5b505afa15801561093f573d6000803e3d6000fd5b505050506040513d601f19601f82011682018060405250810190610963919061538e565b92505b5050915091565b6006546001600160a01b031633146109b55760405162461bcd60e51b81526020600482015260176024820152600080516020615f8a833981519152604482015260640161080e565b600082116109fd5760405162461bcd60e51b81526020600482015260156024820152746d696e696d756d20707269636520746f6f206c6f7760581b604482015260640161080e565b7f00000000000000000000000000000000000000000000000000000000000000006001600160a01b0316836001600160a01b0316148015610a3d57508051155b80610b2f57507f00000000000000000000000000000000000000000000000000000000000000006001600160a01b0316836001600160a01b031614158015610abe5750826001600160a01b031681600081518110610aab57634e487b7160e01b600052603260045260246000fd5b60200260200101516001600160a01b0316145b8015610b2f57507f00000000000000000000000000000000000000000000000000000000000000006001600160a01b03168160018351610afe9190615805565b81518110610b1c57634e487b7160e01b600052603260045260246000fd5b60200260200101516001600160a01b0316145b610b6b5760405162461bcd60e51b815260206004820152600d60248201526c696e76616c696420726f75746560981b604482015260640161080e565b6001600160a01b03831660009081526008602052604090205460ff16610bef576010805460018082019092557f1b6847dc741a1b0cd08d278845f9d819d87b734759afb55fe2de5cb82a9ae6720180546001600160a01b0319166001600160a01b0386169081179091556000908152600860205260409020805460ff191690911790555b6001600160a01b0383166000908152600160209081526040808320859055600e82529091208251610c2292840190614ea4565b50505050565b6001600160a01b0381166000908152600e6020908152604091829020805483518184028101840190945280845260609392830182828015610c9257602002820191906000526020600020905b81546001600160a01b03168152600190910190602001808311610c74575b50505050509050919050565b6006546001600160a01b03163314610ce65760405162461bcd60e51b81526020600482015260176024820152600080516020615f8a833981519152604482015260640161080e565b612710811115610d385760405162461bcd60e51b815260206004820152601b60248201527f6d696e696d756d2070657263656e7461676520746f6f20686967680000000000604482015260640161080e565b600255565b6006546001600160a01b03163314610d855760405162461bcd60e51b81526020600482015260176024820152600080516020615f8a833981519152604482015260640161080e565b6001600160a01b03821660009081526008602052604090205460ff16610de55760405162461bcd60e51b815260206004820152601560248201527434b73b30b634b2103830bcb6b2b73a103a37b5b2b760591b604482015260640161080e565b60008111610e2d5760405162461bcd60e51b81526020600482015260156024820152746d696e696d756d20707269636520746f6f206c6f7760581b604482015260640161080e565b6001600160a01b03909116600090815260016020526040902055565b6001600160a01b0382166000908152600c602090815260408083208484529091529020548015610c2257610e7d8383614955565b610ec95760405162461bcd60e51b815260206004820152601360248201527f746f6b656e206973206e6f74206275726e656400000000000000000000000000604482015260640161080e565b6001600160a01b038481166000908152600a6020526040908190205490516338b4afd960e01b8152911660048201526024810182905273DecC66Ac03a22166917F301Bb2EF21FA3F3c2832906338b4afd99060440160006040518083038186803b158015610f3657600080fd5b505af4158015610f4a573d6000803e3d6000fd5b5050506000828152600d602052604080822060098101549151637965d56d60e01b8152600481019290925292507f00000000000000000000000000000000000000000000000000000000000000006001600160a01b031690637965d56d9060240160206040518083038186803b158015610fc357600080fd5b505afa158015610fd7573d6000803e3d6000fd5b505050506040513d601f19601f82011682018060405250810190610ffb919061538e565b9050801561103d57600482015461103d907f0000000000000000000000000000000000000000000000000000000000000000906001600160a01b0316836149e5565b60048201546001600160a01b039081166000908152600b602052604090205416156110d4576004828101546001600160a01b039081166000908152600b602052604090819020549051634cc8221560e01b81529283018690521690634cc8221590602401600060405180830381600087803b1580156110bb57600080fd5b505af11580156110cf573d6000803e3d6000fd5b505050505b50506000818152600d602090815260408083208381556001810180546001600160a01b0319908116909155600282018590556003820180548216905560048201805482169055600582018054909116905560068101849055600781018490556008810184905560098101849055600a01805460ff191690556001600160a01b0386168352600c825280832085845290915281205550505050565b6006546001600160a01b031633146111b65760405162461bcd60e51b81526020600482015260176024820152600080516020615f8a833981519152604482015260640161080e565b6004546001600160a01b031661120e5760405162461bcd60e51b815260206004820152601560248201527f66656520636f6c6c6563746f72206e6f74207365740000000000000000000000604482015260640161080e565b61271081111561124e5760405162461bcd60e51b815260206004820152600b60248201526a696e76616c69642066656560a81b604482015260640161080e565b600355565b6001600160a01b0382166000908152600c602090815260408083208484529091529020548015611381576000818152600d60205260409020600401546001600160a01b0316338114806112ae5750336001600160a01b038516145b6112fa5760405162461bcd60e51b815260206004820152601560248201527f6f776e657220686173206e6f74206368616e6765640000000000000000000000604482015260640161080e565b6001600160a01b038181166000908152600b6020526040908190205490516338b4afd960e01b8152911660048201526024810183905273DecC66Ac03a22166917F301Bb2EF21FA3F3c2832906338b4afd99060440160006040518083038186803b15801561136757600080fd5b505af415801561137b573d6000803e3d6000fd5b50505050505b505050565b6001600160a01b038082166000908152600b6020526040812054909182911680156114ef576000816001600160a01b0316638f7dcfa36040518163ffffffff1660e01b815260040160606040518083038186803b1580156113e657600080fd5b505afa1580156113fa573d6000803e3d6000fd5b505050506040513d601f19601f8201168201806040525081019061141e919061531b565b90505b6040810151156109665760008061143b8360400151614a5d565b909250905061144a81836157ae565b61145490876157ae565b955061146081866157ae565b6020840151604051634a83e9cd60e11b81529196506001600160a01b03861691639507d39a916114969160040190815260200190565b60606040518083038186803b1580156114ae57600080fd5b505afa1580156114c2573d6000803e3d6000fd5b505050506040513d601f19601f820116820180604052508101906114e6919061531b565b92505050611421565b50915091565b60608180156115ed578067ffffffffffffffff81111561152557634e487b7160e01b600052604160045260246000fd5b60405190808252806020026020018201604052801561155e57816020015b61154b614dea565b8152602001906001900390816115435790505b50915060005b818110156115eb576115ad600d600087878581811061159357634e487b7160e01b600052603260045260246000fd5b905060200201358152602001908152602001600020614373565b8382815181106115cd57634e487b7160e01b600052603260045260246000fd5b602002602001018190525080806115e39061585f565b915050611564565b505b5092915050565b6000828152600d60205260408082206001810154600282015492516331a9108f60e11b81529193926001600160a01b0390911691636352211e9161163e9160040190815260200190565b60206040518083038186803b15801561165657600080fd5b505afa15801561166a573d6000803e3d6000fd5b505050506040513d601f19601f8201168201806040525081019061168e9190614fb2565b9050336001600160a01b038216146116d65760405162461bcd60e51b81526020600482015260176024820152600080516020615f8a833981519152604482015260640161080e565b6000806116e286614a5d565b91509150808511156117365760405162461bcd60e51b815260206004820152601660248201527f616d6f756e7420657863656564732062616c616e636500000000000000000000604482015260640161080e565b6117617f000000000000000000000000000000000000000000000000000000000000000084876149e5565b600061176d8683615805565b90506001600160a01b037f000000000000000000000000000000000000000000000000000000000000000016631bd396746117a883866157ae565b6040518263ffffffff1660e01b81526004016117c691815260200190565b60206040518083038186803b1580156117de57600080fd5b505afa1580156117f2573d6000803e3d6000fd5b505050506040513d601f19601f82011682018060405250810190611816919061538e565b60098601556118258184615805565b600886015560408051838152602081018590526001600160a01b0386169189917f251cec697c3733beaecd18442a10267faf29ba8ec86451eb9c94416e55de752b910160405180910390a350505050505050565b60008061188583614a5d565b949350505050565b6006546001600160a01b031633146118d55760405162461bcd60e51b81526020600482015260176024820152600080516020615f8a833981519152604482015260640161080e565b6001600160a01b03166000908152600760205260409020805460ff19166001179055565b6002600054141561194c5760405162461bcd60e51b815260206004820152601f60248201527f5265656e7472616e637947756172643a207265656e7472616e742063616c6c00604482015260640161080e565b60026000908155818152600d602052604090208054821480156119735750600a81015460ff165b6119ae5760405162461bcd60e51b815260206004820152600c60248201526b696e76616c6964206974656d60a01b604482015260640161080e565b6000828152600f6020908152604080832083805290915281205433919060ff1615806119fc57506000848152600f602090815260408083206001600160a01b038616845290915290205460ff165b611a485760405162461bcd60e51b815260206004820152600f60248201527f6e6f742077686974656c69737465640000000000000000000000000000000000604482015260640161080e565b60068301546007840154600090611a5f9083615805565b9050811561217a5760058501546001600160a01b03166000818152600e602052604090208054611aa357611a9e6001600160a01b038316873087614ab1565b611c43565b611ab86001600160a01b038316873087614ab1565b60405163095ea7b360e01b81526001600160a01b037f0000000000000000000000000000000000000000000000000000000000000000811660048301526024820185905283169063095ea7b390604401602060405180830381600087803b158015611b2257600080fd5b505af1158015611b36573d6000803e3d6000fd5b505050506040513d601f19601f82011682018060405250810190611b5a9190615278565b506040516338ed173960e01b81526000906001600160a01b037f000000000000000000000000000000000000000000000000000000000000000016906338ed173990611bb290879085908790309042906004016156e6565b600060405180830381600087803b158015611bcc57600080fd5b505af1158015611be0573d6000803e3d6000fd5b505050506040513d6000823e601f3d908101601f19168201604052611c0891908101906151e5565b90508060018251611c199190615805565b81518110611c3757634e487b7160e01b600052603260045260246000fd5b60200260200101519350505b600787015415611e325760035415611da2576127106003548860070154611c6a91906157e6565b611c7491906157c6565b94506000858860070154611c889190615805565b600389015460405163a9059cbb60e01b81526001600160a01b0391821660048201526024810183905291925084169063a9059cbb90604401602060405180830381600087803b158015611cda57600080fd5b505af1158015611cee573d6000803e3d6000fd5b505050506040513d601f19601f82011682018060405250810190611d129190615278565b506004805460405163a9059cbb60e01b81526001600160a01b03918216928101929092526024820188905284169063a9059cbb90604401602060405180830381600087803b158015611d6357600080fd5b505af1158015611d77573d6000803e3d6000fd5b505050506040513d601f19601f82011682018060405250810190611d9b9190615278565b5050611e32565b6003870154600788015460405163a9059cbb60e01b81526001600160a01b03928316600482015260248101919091529083169063a9059cbb90604401602060405180830381600087803b158015611df857600080fd5b505af1158015611e0c573d6000803e3d6000fd5b505050506040513d601f19601f82011682018060405250810190611e309190615278565b505b82156121775760405163095ea7b360e01b81526001600160a01b037f000000000000000000000000000000000000000000000000000000000000000081166004830152602482018590527f0000000000000000000000000000000000000000000000000000000000000000169063095ea7b390604401602060405180830381600087803b158015611ec257600080fd5b505af1158015611ed6573d6000803e3d6000fd5b505050506040513d601f19601f82011682018060405250810190611efa9190615278565b50604051637acb775760e01b8152600481018490523060248201527f00000000000000000000000000000000000000000000000000000000000000006001600160a01b031690637acb775790604401602060405180830381600087803b158015611f6357600080fd5b505af1158015611f77573d6000803e3d6000fd5b505050506040513d601f19601f82011682018060405250810190611f9b9190615278565b50604051630f41a04d60e11b81523060048201527f00000000000000000000000000000000000000000000000000000000000000006001600160a01b031690631e83409a90602401600060405180830381600087803b158015611ffd57600080fd5b505af1158015612011573d6000803e3d6000fd5b505050508260008860090154116120295760006120c7565b6009880154604051637965d56d60e01b815260048101919091527f00000000000000000000000000000000000000000000000000000000000000006001600160a01b031690637965d56d9060240160206040518083038186803b15801561208f57600080fd5b505afa1580156120a3573d6000803e3d6000fd5b505050506040513d601f19601f820116820180604052508101906120c7919061538e565b6120d191906157ae565b600888018190556040516306f4e59d60e21b815260048101919091527f00000000000000000000000000000000000000000000000000000000000000006001600160a01b031690631bd396749060240160206040518083038186803b15801561213957600080fd5b505afa15801561214d573d6000803e3d6000fd5b505050506040513d601f19601f82011682018060405250810190612171919061538e565b60098801555b50505b60018501546002860154604051632142170760e11b81523060048201526001600160a01b03878116602483015260448201929092529116906342842e0e90606401600060405180830381600087803b1580156121d557600080fd5b505af11580156121e9573d6000803e3d6000fd5b50505050600485810180546001600160a01b0319166001600160a01b0387811691909117909155600a8701805460ff19169055601154604051634cc8221560e01b81529283018990521690634cc8221590602401600060405180830381600087803b15801561225757600080fd5b505af115801561226b573d6000803e3d6000fd5b5050604051633e23bcbb60e11b8152600b60048201526001600160a01b03871660248201526044810189905273DecC66Ac03a22166917F301Bb2EF21FA3F3c28329250637c477976915060640160006040518083038186803b1580156122d057600080fd5b505af41580156122e4573d6000803e3d6000fd5b505050506001850154600286015460405163589a174360e01b815260048101919091526000916001600160a01b03169063589a17439060240160206040518083038186803b15801561233557600080fd5b505afa158015612349573d6000803e3d6000fd5b505050506040513d601f19601f8201168201806040525081019061236d9190614fb2565b6001600160a01b03818116600090815260096020526040908190205490516338b4afd960e01b8152911660048201526024810189905290915073DecC66Ac03a22166917F301Bb2EF21FA3F3c2832906338b4afd99060440160006040518083038186803b1580156123dd57600080fd5b505af41580156123f1573d6000803e3d6000fd5b5050506000888152600f602090815260408083208380528252808320805460ff19908116909155308452928190208054909316600190811790935560028a0154928a015460058b015460068c015460088d015484516001600160a01b038e8116825293841696810196909652858501919091526060850152608084018a9052915193945016918a917f629cadcd430142dd9c11f4216494dcd6c02127ada59395b2ba41e867f654fae4919081900360a00190a4505060016000555050505050565b6006546001600160a01b031633146124fa5760405162461bcd60e51b81526020600482015260176024820152600080516020615f8a833981519152604482015260640161080e565b6001600160a01b0381161515806125115750600354155b61255d5760405162461bcd60e51b815260206004820152601560248201527f696e76616c69642066656520636f6c6c6563746f720000000000000000000000604482015260640161080e565b600480546001600160a01b0319166001600160a01b0392909216919091179055565b6006546001600160a01b031633146125c75760405162461bcd60e51b81526020600482015260176024820152600080516020615f8a833981519152604482015260640161080e565b7f00000000000000000000000000000000000000000000000000000000000000006001600160a01b0316816001600160a01b0316141561260657600080fd5b6001600160a01b0381166000908152600860209081526040808320805460ff19169055600e909152812061263991614f09565b6001600160a01b038116600090815260016020526040812081905560105490805b828110156127595781156126fc576010818154811061268957634e487b7160e01b600052603260045260246000fd5b6000918252602090912001546001600160a01b031660106126ab600184615805565b815481106126c957634e487b7160e01b600052603260045260246000fd5b9060005260206000200160006101000a8154816001600160a01b0302191690836001600160a01b03160217905550612747565b836001600160a01b03166010828154811061272757634e487b7160e01b600052603260045260246000fd5b6000918252602090912001546001600160a01b0316141561274757600191505b806127518161585f565b91505061265a565b50801561138157601080548061277f57634e487b7160e01b600052603160045260246000fd5b600082815260209020810160001990810180546001600160a01b0319169055019055505050565b3360009081526007602052604090205460ff166128055760405162461bcd60e51b815260206004820152601960248201527f63616c6c6572206973206e6f742077686974656c697374656400000000000000604482015260640161080e565b6001600160a01b0382166000908152600c602090815260408083208484529091529020548015610c22576001600160a01b038481166000908152600a6020526040902054166128a75760405161285a90614f2a565b604051809103906000f080158015612876573d6000803e3d6000fd5b506001600160a01b038581166000908152600a6020526040902080546001600160a01b031916929091169190911790555b6001600160a01b038481166000908152600a60205260409081902054905163e33b870760e01b81526004810184905291169063e33b870790602401600060405180830381600087803b1580156128fc57600080fd5b505af115801561137b573d6000803e3d6000fd5b6011546060906000908190612930906001600160a01b03168786886140e2565b915091508067ffffffffffffffff81111561295b57634e487b7160e01b600052604160045260246000fd5b60405190808252806020026020018201604052801561299457816020015b612981614dea565b8152602001906001900390816129795790505b5092508160005b82811015612a94576040808301516000908152600d602052206129bd90614373565b8582815181106129dd57634e487b7160e01b600052603260045260246000fd5b60209081029190910181019190915260115460408051630e891c2760e01b815285516004820152928501516024840152840151604483015287151560648301526001600160a01b031690630e891c279060840160606040518083038186803b158015612a4857600080fd5b505afa158015612a5c573d6000803e3d6000fd5b505050506040513d601f19601f82011682018060405250810190612a80919061531b565b915080612a8c8161585f565b91505061299b565b505050509392505050565b6001600160a01b038085166000908152600a60205260409020546060911680156107c157600080612ad2838887896140e2565b915091508067ffffffffffffffff811115612afd57634e487b7160e01b600052604160045260246000fd5b604051908082528060200260200182016040528015612b3657816020015b612b23614dea565b815260200190600190039081612b1b5790505b5093508160005b828110156107bc576040808301516000908152600d60205220612b5f90614373565b868281518110612b7f57634e487b7160e01b600052603260045260246000fd5b60209081029190910181019190915260408051630e891c2760e01b815284516004820152918401516024830152830151604482015287151560648201526001600160a01b03861690630e891c279060840160606040518083038186803b158015612be857600080fd5b505afa158015612bfc573d6000803e3d6000fd5b505050506040513d601f19601f82011682018060405250810190612c20919061531b565b915080612c2c8161585f565b915050612b3d565b600080612c4083614a5d565b509392505050565b60026000541415612c9b5760405162461bcd60e51b815260206004820152601f60248201527f5265656e7472616e637947756172643a207265656e7472616e742063616c6c00604482015260640161080e565b60026000908155818152600d60205260409020600381015481546001600160a01b03909116908314612d0f5760405162461bcd60e51b815260206004820152600f60248201527f696e76616c6964206974656d2069640000000000000000000000000000000000604482015260640161080e565b6001600160a01b0381163314612d675760405162461bcd60e51b815260206004820152601860248201527f63616c6c6572206973206e6f74207468652073656c6c65720000000000000000604482015260640161080e565b6001820154600283015460038401546040516323b872dd60e01b81523060048201526001600160a01b03918216602482015260448101839052921691829081906323b872dd90606401600060405180830381600087803b158015612dca57600080fd5b505af1158015612dde573d6000803e3d6000fd5b505050506003850180546001600160a01b0319908116909155600480870180546001600160a01b038816931683179055600a8701805460ff19169055604051633e23bcbb60e11b8152600b9181019190915260248101919091526044810187905273DecC66Ac03a22166917F301Bb2EF21FA3F3c283290637c4779769060640160006040518083038186803b158015612e7657600080fd5b505af4158015612e8a573d6000803e3d6000fd5b5050601154604051634cc8221560e01b8152600481018a90526001600160a01b039091169250634cc822159150602401600060405180830381600087803b158015612ed457600080fd5b505af1158015612ee8573d6000803e3d6000fd5b505060405163589a174360e01b815260048101859052600092506001600160a01b038616915063589a17439060240160206040518083038186803b158015612f2f57600080fd5b505afa158015612f43573d6000803e3d6000fd5b505050506040513d601f19601f82011682018060405250810190612f679190614fb2565b6001600160a01b03818116600090815260096020526040908190205490516338b4afd960e01b8152911660048201526024810189905290915073DecC66Ac03a22166917F301Bb2EF21FA3F3c2832906338b4afd99060440160006040518083038186803b158015612fd757600080fd5b505af4158015612feb573d6000803e3d6000fd5b5050505085600801546000141561305d5760405162c6239360e11b815260048101849052600060248201526001600160a01b0385169063018c472690604401600060405180830381600087803b15801561304457600080fd5b505af1158015613058573d6000803e3d6000fd5b505050505b6002860154600187015487546040516001600160a01b03909216917fce438b6cfecd51c87c70deb47c0e4af51fa8bf618405102abcfe6a8408c1385190600090a4505060016000555050505050565b6130b4614dea565b6000828152600d602052604090206130cb90614373565b92915050565b6060601080548060200260200160405190810160405280929190818152602001828054801561312957602002820191906000526020600020905b81546001600160a01b0316815260019091019060200180831161310b575b5050505050905090565b6000818152600d602052604080822060018101546002820154925163589a174360e01b81529193926001600160a01b039091169163589a17439161317d9160040190815260200190565b60206040518083038186803b15801561319557600080fd5b505afa1580156131a9573d6000803e3d6000fd5b505050506040513d601f19601f820116820180604052508101906131cd9190614fb2565b9050336001600160a01b038216146132275760405162461bcd60e51b815260206004820152601960248201527f63616c6c6572206973206e6f74207468652063726561746f7200000000000000604482015260640161080e565b50506000908152600f602090815260408083208380529091529020805460ff19169055565b6006546001600160a01b031633146132945760405162461bcd60e51b81526020600482015260176024820152600080516020615f8a833981519152604482015260640161080e565b600680546001600160a01b0319166001600160a01b0392909216919091179055565b80806133045760405162461bcd60e51b815260206004820152601060248201527f656d707479206275796572206c69737400000000000000000000000000000000604482015260640161080e565b6000848152600d602052604080822060018101546002820154925163589a174360e01b81529193926001600160a01b039091169163589a17439161334e9160040190815260200190565b60206040518083038186803b15801561336657600080fd5b505afa15801561337a573d6000803e3d6000fd5b505050506040513d601f19601f8201168201806040525081019061339e9190614fb2565b90506001600160a01b03811633146133f85760405162461bcd60e51b815260206004820152601960248201527f63616c6c6572206973206e6f74207468652063726561746f7200000000000000604482015260640161080e565b6000868152600f602090815260408083203080855292529091205460ff16156134635760405162461bcd60e51b815260206004820152601360248201527f6e6f7420696e697469616c206c697374696e6700000000000000000000000000604482015260640161080e565b6000878152600f602090815260408083208380529091528120805460ff191660011790555b8481101561137b5760008787838181106134b257634e487b7160e01b600052603260045260246000fd5b90506020020160208101906134c79190614f96565b60008a8152600f602052604081209192506001600160a01b03808416908616141591908a8a8681811061350a57634e487b7160e01b600052603260045260246000fd5b905060200201602081019061351f9190614f96565b6001600160a01b031681526020810191909152604001600020805460ff191691151591909117905550806135528161585f565b915050613488565b3360009081526007602052604090205460ff166135b95760405162461bcd60e51b815260206004820152601960248201527f63616c6c6572206973206e6f742077686974656c697374656400000000000000604482015260640161080e565b6040516331a9108f60e11b8152600481018290526000906001600160a01b03841690636352211e9060240160206040518083038186803b1580156135fc57600080fd5b505afa158015613610573d6000803e3d6000fd5b505050506040513d601f19601f820116820180604052508101906136349190614fb2565b6001600160a01b0384166000908152600c60209081526040808320868452909152902054909150806137955760056000815461366f9061585f565b91829055506001600160a01b038581166000818152600c6020908152604080832089845282528083208690558051610160810182528681528083019485528082018a8152606082018581528a88166080840190815260a0840187815260c0850188815260e0860189815261010087018a815261012088018b815261014089018c81528f8d52600d909b5298909a209651875599516001870180546001600160a01b0319908116928e169290921790559451600287015592516003860180548616918c1691909117905590516004850180548516918b169190911790555160058401805490931698169790971790559451600686015592516007850155905160088401559051600983015551600a909101805460ff191691151591909117905590506137da565b6000818152600d602052604090206003810180546001600160a01b03199081169091556004820180549091166001600160a01b038516179055600a01805460ff191690555b604051633e23bcbb60e11b8152600b60048201526001600160a01b03831660248201526044810182905273DecC66Ac03a22166917F301Bb2EF21FA3F3c283290637c4779769060640160006040518083038186803b15801561383b57600080fd5b505af415801561384f573d6000803e3d6000fd5b5050505082846001600160a01b0316827f2e979c2abee3feb11b09d0199e22cecd37f21b413de97abf9e75bc1d0853dfe760405160405180910390a450505050565b600260005414156138e45760405162461bcd60e51b815260206004820152601f60248201527f5265656e7472616e637947756172643a207265656e7472616e742063616c6c00604482015260640161080e565b600260009081556001600160a01b0384168152600860205260409020543390869060ff1661394c5760405162461bcd60e51b815260206004820152601560248201527434b73b30b634b2103830bcb6b2b73a103a37b5b2b760591b604482015260640161080e565b6040516331a9108f60e11b8152600481018790526001600160a01b038084169190831690636352211e9060240160206040518083038186803b15801561399157600080fd5b505afa1580156139a5573d6000803e3d6000fd5b505050506040513d601f19601f820116820180604052508101906139c99190614fb2565b6001600160a01b031614613a0d5760405162461bcd60e51b81526020600482015260176024820152600080516020615f8a833981519152604482015260640161080e565b6001600160a01b038516600090815260016020526040902054841015613a655760405162461bcd60e51b815260206004820152600d60248201526c707269636520746f6f206c6f7760981b604482015260640161080e565b6127108361ffff161115613abb5760405162461bcd60e51b815260206004820152601b60248201527f7374616b696e672070657263656e7461676520746f6f20686967680000000000604482015260640161080e565b6002548361ffff161015613b115760405162461bcd60e51b815260206004820152601a60248201527f7374616b696e672070657263656e7461676520746f6f206c6f77000000000000604482015260640161080e565b6000612710613b2461ffff8616876157e6565b613b2e91906157c6565b90506000613b3c8287615805565b6001600160a01b038a166000908152600c602090815260408083208c845290915290205490915080613d5b57600560008154613b779061585f565b919050819055600c60008c6001600160a01b03166001600160a01b0316815260200190815260200160002060008b815260200190815260200160002081905590506040518061016001604052808281526020018b6001600160a01b031681526020018a8152602001866001600160a01b03168152602001306001600160a01b03168152602001896001600160a01b03168152602001888152602001838152602001600081526020016000815260200160011515815250600d60008381526020019081526020016000206000820151816000015560208201518160010160006101000a8154816001600160a01b0302191690836001600160a01b031602179055506040820151816002015560608201518160030160006101000a8154816001600160a01b0302191690836001600160a01b0316021790555060808201518160040160006101000a8154816001600160a01b0302191690836001600160a01b0316021790555060a08201518160050160006101000a8154816001600160a01b0302191690836001600160a01b0316021790555060c0820151816006015560e082015181600701556101008201518160080155610120820151816009015561014082015181600a0160006101000a81548160ff021916908315150217905550905050613dc6565b6000818152600d602052604090206003810180546001600160a01b038089166001600160a01b031992831617909255600483018054821630179055600583018054928c16929091169190911790556006810188905560078101839055600a01805460ff191660011790555b60405162c6239360e11b8152600481018a9052600160248201526001600160a01b038b169063018c472690604401600060405180830381600087803b158015613e0e57600080fd5b505af1158015613e22573d6000803e3d6000fd5b50506040516323b872dd60e01b81526001600160a01b038881166004830152306024830152604482018d9052871692506323b872dd9150606401600060405180830381600087803b158015613e7657600080fd5b505af1158015613e8a573d6000803e3d6000fd5b505050506001600160a01b038581166000908152600b6020526040908190205490516338b4afd960e01b8152911660048201526024810182905273DecC66Ac03a22166917F301Bb2EF21FA3F3c2832906338b4afd99060440160006040518083038186803b158015613efb57600080fd5b505af4158015613f0f573d6000803e3d6000fd5b505060115460405163e33b870760e01b8152600481018590526001600160a01b03909116925063e33b87079150602401600060405180830381600087803b158015613f5957600080fd5b505af1158015613f6d573d6000803e3d6000fd5b505060405163589a174360e01b8152600481018c9052600092506001600160a01b038d16915063589a17439060240160206040518083038186803b158015613fb457600080fd5b505afa158015613fc8573d6000803e3d6000fd5b505050506040513d601f19601f82011682018060405250810190613fec9190614fb2565b604051633e23bcbb60e11b8152600960048201526001600160a01b03821660248201526044810184905290915073DecC66Ac03a22166917F301Bb2EF21FA3F3c283290637c4779769060640160006040518083038186803b15801561405057600080fd5b505af4158015614064573d6000803e3d6000fd5b5050604080516001600160a01b038a81168252600060208301528d811682840152606082018d90526080820188905260a0820189905291518e9450918f16925085917f1f2bc42afd1ecfa86cd3bd1c90c99e3c356a871aba9768b1d4abe60dc41d6aa79181900360c00190a450506001600055505050505050505050565b61410660405180606001604052806000815260200160008152602001600081525090565b6000841561421c57604051634a83e9cd60e11b8152600481018690526001600160a01b03871690630e891c27908290639507d39a9060240160606040518083038186803b15801561415657600080fd5b505afa15801561416a573d6000803e3d6000fd5b505050506040513d601f19601f8201168201806040525081019061418e919061531b565b604080516001600160e01b031960e085901b16815282516004820152602083015160248201529101516044820152861515606482015260840160606040518083038186803b1580156141df57600080fd5b505afa1580156141f3573d6000803e3d6000fd5b505050506040513d601f19601f82011682018060405250810190614217919061531b565b614295565b604051631b253ed160e21b815284151560048201526001600160a01b03871690636c94fb449060240160606040518083038186803b15801561425d57600080fd5b505afa158015614271573d6000803e3d6000fd5b505050506040513d601f19601f82011682018060405250810190614295919061531b565b915081835b6000811180156142ad5750604082015115155b1561436857826142bc8161585f565b60408051630e891c2760e01b8152855160048201526020860151602482015290850151604482015288151560648201529094506001600160a01b038a169150630e891c279060840160606040518083038186803b15801561431c57600080fd5b505afa158015614330573d6000803e3d6000fd5b505050506040513d601f19601f82011682018060405250810190614354919061531b565b91508061436081615848565b91505061429a565b505094509492505050565b61437b614dea565b8154815260018201546001600160a01b039081166020830152600283015460408301526005830154166101a082015260068201546101c0820152600a82015460ff161580156101208301526145685760038201546001600160a01b039081166101408301819052604051637ae2b9c160e11b815260048101919091527f00000000000000000000000000000000000000000000000000000000000000009091169063f5c573829060240160006040518083038186803b15801561443d57600080fd5b505afa158015614451573d6000803e3d6000fd5b505050506040513d6000823e601f3d908101601f191682016040526144799190810190615294565b610160820152610140810151604051633c02914560e11b81526001600160a01b0391821660048201527f000000000000000000000000000000000000000000000000000000000000000090911690637805228a9060240160006040518083038186803b1580156144e857600080fd5b505afa1580156144fc573d6000803e3d6000fd5b505050506040513d6000823e601f3d908101601f191682016040526145249190810190615294565b6101808201526101c08101516007830154614541906127106157e6565b61454b91906157c6565b6101e0820152805161455c90614a5d565b50610200820152614773565b80602001516001600160a01b0316636352211e82604001516040518263ffffffff1660e01b815260040161459e91815260200190565b60206040518083038186803b1580156145b657600080fd5b505afa1580156145ca573d6000803e3d6000fd5b505050506040513d601f19601f820116820180604052508101906145ee9190614fb2565b6001600160a01b0390811660c08301819052604051637ae2b9c160e11b815260048101919091527f00000000000000000000000000000000000000000000000000000000000000009091169063f5c573829060240160006040518083038186803b15801561465b57600080fd5b505afa15801561466f573d6000803e3d6000fd5b505050506040513d6000823e601f3d908101601f191682016040526146979190810190615294565b60e082015260c0810151604051633c02914560e11b81526001600160a01b0391821660048201527f000000000000000000000000000000000000000000000000000000000000000090911690637805228a9060240160006040518083038186803b15801561470457600080fd5b505afa158015614718573d6000803e3d6000fd5b505050506040513d6000823e601f3d908101601f191682016040526147409190810190615294565b6101008201528051600090819061475690614a5d565b909250905061476581836157ae565b610200840152610220830152505b80602001516001600160a01b031663589a174382604001516040518263ffffffff1660e01b81526004016147a991815260200190565b60206040518083038186803b1580156147c157600080fd5b505afa1580156147d5573d6000803e3d6000fd5b505050506040513d601f19601f820116820180604052508101906147f99190614fb2565b6001600160a01b0390811660608301819052604051637ae2b9c160e11b815260048101919091527f00000000000000000000000000000000000000000000000000000000000000009091169063f5c573829060240160006040518083038186803b15801561486657600080fd5b505afa15801561487a573d6000803e3d6000fd5b505050506040513d6000823e601f3d908101601f191682016040526148a29190810190615294565b60808201526060810151604051633c02914560e11b81526001600160a01b0391821660048201527f000000000000000000000000000000000000000000000000000000000000000090911690637805228a9060240160006040518083038186803b15801561490f57600080fd5b505afa158015614923573d6000803e3d6000fd5b505050506040513d6000823e601f3d908101601f1916820160405261494b9190810190615294565b60a0820152919050565b6040516331a9108f60e11b8152600481018290526000906001600160a01b03841690636352211e9060240160206040518083038186803b15801561499857600080fd5b505afa9250505080156149c8575060408051601f3d908101601f191682019092526149c591810190614fb2565b60015b6149d4575060016130cb565b6001600160a01b03161590506130cb565b6040516001600160a01b03831660248201526044810182905261138190849063a9059cbb60e01b906064015b60408051601f198184030181529190526020810180517bffffffffffffffffffffffffffffffffffffffffffffffffffffffff166001600160e01b031990931692909217909152614ae9565b6000818152600d6020526040812081908180614a7883614bbb565b909250905060006002614a8b8385615805565b614a9591906157c6565b90506000614aa38285615805565b989197509095505050505050565b6040516001600160a01b0380851660248301528316604482015260648101829052610c229085906323b872dd60e01b90608401614a11565b6000614b3e826040518060400160405280602081526020017f5361666545524332303a206c6f772d6c6576656c2063616c6c206661696c6564815250856001600160a01b0316614c709092919063ffffffff16565b8051909150156113815780806020019051810190614b5c9190615278565b6113815760405162461bcd60e51b815260206004820152602a60248201527f5361666545524332303a204552433230206f7065726174696f6e20646964206e6044820152691bdd081cdd58d8d9595960b21b606482015260840161080e565b60008060007f00000000000000000000000000000000000000000000000000000000000000006001600160a01b0316637965d56d85600901546040518263ffffffff1660e01b8152600401614c1291815260200190565b60206040518083038186803b158015614c2a57600080fd5b505afa158015614c3e573d6000803e3d6000fd5b505050506040513d601f19601f82011682018060405250810190614c62919061538e565b600890940154939492505050565b6060614c7f8484600085614c89565b90505b9392505050565b606082471015614cea5760405162461bcd60e51b815260206004820152602660248201527f416464726573733a20696e73756666696369656e742062616c616e636520666f6044820152651c8818d85b1b60d21b606482015260840161080e565b843b614d385760405162461bcd60e51b815260206004820152601d60248201527f416464726573733a2063616c6c20746f206e6f6e2d636f6e7472616374000000604482015260640161080e565b600080866001600160a01b03168587604051614d5491906155f6565b60006040518083038185875af1925050503d8060008114614d91576040519150601f19603f3d011682016040523d82523d6000602084013e614d96565b606091505b5091509150614da6828286614db1565b979650505050505050565b60608315614dc0575081614c82565b825115614dd05782518084602001fd5b8160405162461bcd60e51b815260040161080e91906156c0565b6040518061024001604052806000815260200160006001600160a01b031681526020016000815260200160006001600160a01b03168152602001606081526020016060815260200160006001600160a01b03168152602001606081526020016060815260200160001515815260200160006001600160a01b03168152602001606081526020016060815260200160006001600160a01b03168152602001600081526020016000815260200160008152602001600081525090565b828054828255906000526020600020908101928215614ef9579160200282015b82811115614ef957825182546001600160a01b0319166001600160a01b03909116178255602090920191600190910190614ec4565b50614f05929150614f37565b5090565b5080546000825590600052602060002090810190614f279190614f37565b50565b6106c0806158ca83390190565b5b80821115614f055760008155600101614f38565b60008083601f840112614f5d578182fd5b50813567ffffffffffffffff811115614f74578182fd5b6020830191508360208260051b8501011115614f8f57600080fd5b9250929050565b600060208284031215614fa7578081fd5b8135614c82816158a6565b600060208284031215614fc3578081fd5b8151614c82816158a6565b600080600060608486031215614fe2578182fd5b8335614fed816158a6565b92506020840135614ffd816158a6565b929592945050506040919091013590565b60008060408385031215615020578182fd5b823561502b816158a6565b946020939093013593505050565b600080600080600060a08688031215615050578081fd5b853561505b816158a6565b9450602086013593506040860135615072816158a6565b925060608601359150608086013561ffff8116811461508f578182fd5b809150509295509295909350565b6000806000606084860312156150b1578283fd5b83356150bc816158a6565b92506020848101359250604085013567ffffffffffffffff8111156150df578283fd5b8501601f810187136150ef578283fd5b80356151026150fd8261578a565b615759565b8082825284820191508484018a868560051b8701011115615121578687fd5b8694505b8385101561514c578035615138816158a6565b835260019490940193918501918501615125565b5080955050505050509250925092565b60008060008060808587031215615171578384fd5b843561517c816158a6565b93506020850135925060408501359150606085013561519a816158bb565b939692955090935050565b600080602083850312156151b7578182fd5b823567ffffffffffffffff8111156151cd578283fd5b6151d985828601614f4c565b90969095509350505050565b600060208083850312156151f7578182fd5b825167ffffffffffffffff81111561520d578283fd5b8301601f8101851361521d578283fd5b805161522b6150fd8261578a565b80828252848201915084840188868560051b870101111561524a578687fd5b8694505b8385101561526c57805183526001949094019391850191850161524e565b50979650505050505050565b600060208284031215615289578081fd5b8151614c82816158bb565b6000602082840312156152a5578081fd5b815167ffffffffffffffff808211156152bc578283fd5b818401915084601f8301126152cf578283fd5b8151818111156152e1576152e1615890565b6152f4601f8201601f1916602001615759565b915080825285602082850101111561530a578384fd5b6107c181602084016020860161581c565b60006060828403121561532c578081fd5b6040516060810181811067ffffffffffffffff8211171561534f5761534f615890565b80604052508251815260208301516020820152604083015160408201528091505092915050565b600060208284031215615387578081fd5b5035919050565b60006020828403121561539f578081fd5b5051919050565b6000806000604084860312156153ba578081fd5b83359250602084013567ffffffffffffffff8111156153d7578182fd5b6153e386828701614f4c565b9497909650939450505050565b60008060408385031215615402578182fd5b50508035926020909101359150565b600080600060608486031215615425578081fd5b8335925060208401359150604084013561543e816158bb565b809150509250925092565b6000815180845261546181602086016020860161581c565b601f01601f19169290920160200192915050565b600061024082518452602083015161549860208601826001600160a01b03169052565b506040830151604085015260608301516154bd60608601826001600160a01b03169052565b5060808301518160808601526154d582860182615449565b91505060a083015184820360a08601526154ef8282615449565b91505060c083015161550c60c08601826001600160a01b03169052565b5060e083015184820360e08601526155248282615449565b915050610100808401518583038287015261553f8382615449565b92505050610120808401516155578287018215159052565b5050610140838101516001600160a01b03169085015261016080840151858303828701526155858382615449565b9250505061018080840151858303828701526155a18382615449565b925050506101a0808401516155c0828701826001600160a01b03169052565b50506101c083810151908501526101e0808401519085015261020080840151908501526102209283015192909301919091525090565b6000825161560881846020870161581c565b9190910192915050565b6020808252825182820181905260009190848201906040850190845b818110156156535783516001600160a01b03168352928401929184019160010161562e565b50909695505050505050565b6000602080830181845280855180835260408601915060408160051b8701019250838701855b828110156156b357603f198886030184526156a1858351615475565b94509285019290850190600101615685565b5092979650505050505050565b602081526000614c826020830184615449565b602081526000614c826020830184615475565b600060a082018783526020878185015260a0604085015281875480845260c0860191508885528285209350845b818110156157385784546001600160a01b031683526001948501949284019201615713565b50506001600160a01b03969096166060850152505050608001529392505050565b604051601f8201601f1916810167ffffffffffffffff8111828210171561578257615782615890565b604052919050565b600067ffffffffffffffff8211156157a4576157a4615890565b5060051b60200190565b600082198211156157c1576157c161587a565b500190565b6000826157e157634e487b7160e01b81526012600452602481fd5b500490565b60008160001904831182151516156158005761580061587a565b500290565b6000828210156158175761581761587a565b500390565b60005b8381101561583757818101518382015260200161581f565b83811115610c225750506000910152565b6000816158575761585761587a565b506000190190565b60006000198214156158735761587361587a565b5060010190565b634e487b7160e01b600052601160045260246000fd5b634e487b7160e01b600052604160045260246000fd5b6001600160a01b0381168114614f2757600080fd5b8015158114614f2757600080fdfe60a060405234801561001057600080fd5b5033606081901b608052610687610039600039600081816101e0015261042301526106876000f3fe608060405234801561001057600080fd5b50600436106100885760003560e01c80638f7dcfa31161005b5780638f7dcfa3146100f7578063949d225d146100ff5780639507d39a14610116578063e33b87071461012957600080fd5b80630e891c271461008d57806313d8c840146100c75780634cc82215146100cf5780636c94fb44146100e4575b600080fd5b6100a061009b36600461056f565b61013c565b60408051825181526020808401519082015291810151908201526060015b60405180910390f35b6100a0610180565b6100e26100dd3660046105f1565b6101de565b005b6100a06100f2366004610555565b610323565b6100a0610367565b61010860005481565b6040519081526020016100be565b6100a06101243660046105f1565b6103c4565b6100e26101373660046105f1565b610421565b61016060405180606001604052806000815260200160008152602001600081525090565b6101798261016f5783516103c4565b83602001516103c4565b9392505050565b6101a460405180606001604052806000815260200160008152602001600081525090565b5060028054600090815260036020908152604091829020825160608101845281548152600182015492810192909252909201549082015290565b7f000000000000000000000000000000000000000000000000000000000000000073ffffffffffffffffffffffffffffffffffffffff1633146102685760405162461bcd60e51b815260206004820152601760248201527f63616c6c6572206973206e6f7420746865206f776e657200000000000000000060448201526064015b60405180910390fd5b60008181526003602052604081208054600190910154825491929091819061028f90610609565b91829055506102a75760006002819055600155610303565b8260015414156102c857600083815260036020526040902060019081015490555b8260025414156102e5576000838152600360205260409020546002555b60008281526003602052604080822060010183905582825290208290555b505060009081526003602052604081208181556001810182905560020155565b61034760405180606001604052806000815260200160008152602001600081525090565b8161035957610354610180565b610361565b610361610367565b92915050565b61038b60405180606001604052806000815260200160008152602001600081525090565b50600180546000908152600360209081526040918290208251606081018452815481529381015491840191909152600201549082015290565b6103e860405180606001604052806000815260200160008152602001600081525090565b50600090815260036020908152604091829020825160608101845281548152600182015492810192909252600201549181019190915290565b7f000000000000000000000000000000000000000000000000000000000000000073ffffffffffffffffffffffffffffffffffffffff1633146104a65760405162461bcd60e51b815260206004820152601760248201527f63616c6c6572206973206e6f7420746865206f776e6572000000000000000000604482015260640161025f565b6104ca60405180606001604052806000815260200160008152602001600081525090565b604081018290526000805490806104e083610620565b909155506104f75760028290556001829055610516565b6002805480835260009081526003602052604090206001018390558290555b60009182526003602090815260409283902082518155908201516001820155910151600290910155565b8035801515811461055057600080fd5b919050565b600060208284031215610566578081fd5b61017982610540565b6000808284036080811215610582578182fd5b606081121561058f578182fd5b506040516060810181811067ffffffffffffffff821117156105bf57634e487b7160e01b83526041600452602483fd5b60409081528435825260208086013590830152848101359082015291506105e860608401610540565b90509250929050565b600060208284031215610602578081fd5b5035919050565b6000816106185761061861063b565b506000190190565b60006000198214156106345761063461063b565b5060010190565b634e487b7160e01b600052601160045260246000fdfea26469706673582212203da6ac77d46979253aeb19f11d6a36c43038f48d09f97ce175555024bbd37e8164736f6c6343000804003363616c6c6572206973206e6f7420746865206f776e6572000000000000000000a264697066735822122021636fb5769276720f4964446f8b160f3aaa4f3f00a44943aeffce25a588086964736f6c6343000804003360a060405234801561001057600080fd5b5033606081901b608052610687610039600039600081816101e0015261042301526106876000f3fe608060405234801561001057600080fd5b50600436106100885760003560e01c80638f7dcfa31161005b5780638f7dcfa3146100f7578063949d225d146100ff5780639507d39a14610116578063e33b87071461012957600080fd5b80630e891c271461008d57806313d8c840146100c75780634cc82215146100cf5780636c94fb44146100e4575b600080fd5b6100a061009b36600461056f565b61013c565b60408051825181526020808401519082015291810151908201526060015b60405180910390f35b6100a0610180565b6100e26100dd3660046105f1565b6101de565b005b6100a06100f2366004610555565b610323565b6100a0610367565b61010860005481565b6040519081526020016100be565b6100a06101243660046105f1565b6103c4565b6100e26101373660046105f1565b610421565b61016060405180606001604052806000815260200160008152602001600081525090565b6101798261016f5783516103c4565b83602001516103c4565b9392505050565b6101a460405180606001604052806000815260200160008152602001600081525090565b5060028054600090815260036020908152604091829020825160608101845281548152600182015492810192909252909201549082015290565b7f000000000000000000000000000000000000000000000000000000000000000073ffffffffffffffffffffffffffffffffffffffff1633146102685760405162461bcd60e51b815260206004820152601760248201527f63616c6c6572206973206e6f7420746865206f776e657200000000000000000060448201526064015b60405180910390fd5b60008181526003602052604081208054600190910154825491929091819061028f90610609565b91829055506102a75760006002819055600155610303565b8260015414156102c857600083815260036020526040902060019081015490555b8260025414156102e5576000838152600360205260409020546002555b60008281526003602052604080822060010183905582825290208290555b505060009081526003602052604081208181556001810182905560020155565b61034760405180606001604052806000815260200160008152602001600081525090565b8161035957610354610180565b610361565b610361610367565b92915050565b61038b60405180606001604052806000815260200160008152602001600081525090565b50600180546000908152600360209081526040918290208251606081018452815481529381015491840191909152600201549082015290565b6103e860405180606001604052806000815260200160008152602001600081525090565b50600090815260036020908152604091829020825160608101845281548152600182015492810192909252600201549181019190915290565b7f000000000000000000000000000000000000000000000000000000000000000073ffffffffffffffffffffffffffffffffffffffff1633146104a65760405162461bcd60e51b815260206004820152601760248201527f63616c6c6572206973206e6f7420746865206f776e6572000000000000000000604482015260640161025f565b6104ca60405180606001604052806000815260200160008152602001600081525090565b604081018290526000805490806104e083610620565b909155506104f75760028290556001829055610516565b6002805480835260009081526003602052604090206001018390558290555b60009182526003602090815260409283902082518155908201516001820155910151600290910155565b8035801515811461055057600080fd5b919050565b600060208284031215610566578081fd5b61017982610540565b6000808284036080811215610582578182fd5b606081121561058f578182fd5b506040516060810181811067ffffffffffffffff821117156105bf57634e487b7160e01b83526041600452602483fd5b60409081528435825260208086013590830152848101359082015291506105e860608401610540565b90509250929050565b600060208284031215610602578081fd5b5035919050565b6000816106185761061861063b565b506000190190565b60006000198214156106345761063461063b565b5060010190565b634e487b7160e01b600052601160045260246000fdfea26469706673582212203da6ac77d46979253aeb19f11d6a36c43038f48d09f97ce175555024bbd37e8164736f6c63430008040033",
  "deployedBytecode": "0x608060405234801561001057600080fd5b50600436106102485760003560e01c8063a51254211161013b578063ca5e553e116100b8578063f887ea401161007c578063f887ea40146105a0578063fa00d03d146105c7578063fa485b68146105da578063fdd1646d146105ed578063ff402d231461060057600080fd5b8063ca5e553e14610533578063d1eaa0641461053b578063ddca3f4314610571578063eb556b501461057a578063f2fde38b1461058d57600080fd5b8063b833d7c8116100ff578063b833d7c8146104b3578063bd9a549f146104da578063c415b95c146104ed578063c68a0e1614610500578063c7be7a491461051357600080fd5b8063a512542114610440578063a82f15c214610453578063ab1a536914610466578063ab60636c14610479578063b4d918e5146104a057600080fd5b80634e7f1e20116101c95780637cbc23731161018d5780637cbc2373146103e1578063825a926f146103f45780638465093e146104075780638c77b5b71461041a578063a42dce801461042d57600080fd5b80634e7f1e201461038257806369fe0e2d146103955780636c0e3b09146103a85780637042bdb9146103bb5780637488cc8f146103ce57600080fd5b80632b47a569116102105780632b47a569146102e65780633e7d7feb146102fd578063455bf0b61461031057806347d5d502146103305780634cf088d91461034357600080fd5b806314d500351461024d578063210009cf1461027657806327df59ba1461028b578063285c4880146102b3578063295f36de146102c6575b600080fd5b61026061025b36600461515c565b610627565b60405161026d919061565f565b60405180910390f35b610289610284366004614f96565b6107ca565b005b61029e610299366004614f96565b610838565b6040805192835260208301919091520161026d565b6102896102c136600461509d565b61096d565b6102d96102d4366004614f96565b610c28565b60405161026d9190615612565b6102ef60025481565b60405190815260200161026d565b61028961030b366004615376565b610c9e565b6102ef61031e366004614f96565b60016020526000908152604090205481565b61028961033e36600461500e565b610d3d565b61036a7f000000000000000000000000000000000000000000000000000000000000000081565b6040516001600160a01b03909116815260200161026d565b610289610390366004614fce565b610e49565b6102896103a3366004615376565b61116e565b6102896103b636600461500e565b611253565b61029e6103c9366004614f96565b611386565b6102606103dc3660046151a5565b6114f5565b6102896103ef3660046153f0565b6115f4565b6102ef610402366004615376565b611879565b610289610415366004614f96565b61188d565b610289610428366004615376565b6118f9565b61028961043b366004614f96565b6124b2565b61028961044e366004614f96565b61257f565b610289610461366004614fce565b6127a6565b610260610474366004615411565b612910565b61036a7f000000000000000000000000000000000000000000000000000000000000000081565b6102606104ae36600461515c565b612a9f565b61036a7f000000000000000000000000000000000000000000000000000000000000000081565b6102ef6104e8366004615376565b612c34565b60045461036a906001600160a01b031681565b61028961050e366004615376565b612c48565b610526610521366004615376565b6130ac565b60405161026d91906156d3565b6102d96130d1565b6102ef61054936600461500e565b6001600160a01b03919091166000908152600c60209081526040808320938352929052205490565b6102ef60035481565b610289610588366004615376565b613133565b61028961059b366004614f96565b61324c565b61036a7f000000000000000000000000000000000000000000000000000000000000000081565b6102896105d53660046153a6565b6132b6565b6102896105e836600461500e565b61355a565b6102896105fb366004615039565b613891565b61036a7f000000000000000000000000000000000000000000000000000000000000000081565b6001600160a01b038085166000908152600b60205260409020546060911680156107c15760008061065a838887896140e2565b915091508067ffffffffffffffff81111561068557634e487b7160e01b600052604160045260246000fd5b6040519080825280602002602001820160405280156106be57816020015b6106ab614dea565b8152602001906001900390816106a35790505b5093508160005b828110156107bc576040808301516000908152600d602052206106e790614373565b86828151811061070757634e487b7160e01b600052603260045260246000fd5b60209081029190910181019190915260408051630e891c2760e01b815284516004820152918401516024830152830151604482015287151560648201526001600160a01b03861690630e891c279060840160606040518083038186803b15801561077057600080fd5b505afa158015610784573d6000803e3d6000fd5b505050506040513d601f19601f820116820180604052508101906107a8919061531b565b9150806107b48161585f565b9150506106c5565b505050505b50949350505050565b6006546001600160a01b031633146108175760405162461bcd60e51b81526020600482015260176024820152600080516020615f8a83398151915260448201526064015b60405180910390fd5b6001600160a01b03166000908152600760205260409020805460ff19169055565b6001600160a01b038082166000908152600a6020526040812054909182911680156108d157806001600160a01b031663949d225d6040518163ffffffff1660e01b815260040160206040518083038186803b15801561089657600080fd5b505afa1580156108aa573d6000803e3d6000fd5b505050506040513d601f19601f820116820180604052508101906108ce919061538e565b92505b6001600160a01b038085166000908152600b602052604090205416801561096657806001600160a01b031663949d225d6040518163ffffffff1660e01b815260040160206040518083038186803b15801561092b57600080fd5b505afa15801561093f573d6000803e3d6000fd5b505050506040513d601f19601f82011682018060405250810190610963919061538e565b92505b5050915091565b6006546001600160a01b031633146109b55760405162461bcd60e51b81526020600482015260176024820152600080516020615f8a833981519152604482015260640161080e565b600082116109fd5760405162461bcd60e51b81526020600482015260156024820152746d696e696d756d20707269636520746f6f206c6f7760581b604482015260640161080e565b7f00000000000000000000000000000000000000000000000000000000000000006001600160a01b0316836001600160a01b0316148015610a3d57508051155b80610b2f57507f00000000000000000000000000000000000000000000000000000000000000006001600160a01b0316836001600160a01b031614158015610abe5750826001600160a01b031681600081518110610aab57634e487b7160e01b600052603260045260246000fd5b60200260200101516001600160a01b0316145b8015610b2f57507f00000000000000000000000000000000000000000000000000000000000000006001600160a01b03168160018351610afe9190615805565b81518110610b1c57634e487b7160e01b600052603260045260246000fd5b60200260200101516001600160a01b0316145b610b6b5760405162461bcd60e51b815260206004820152600d60248201526c696e76616c696420726f75746560981b604482015260640161080e565b6001600160a01b03831660009081526008602052604090205460ff16610bef576010805460018082019092557f1b6847dc741a1b0cd08d278845f9d819d87b734759afb55fe2de5cb82a9ae6720180546001600160a01b0319166001600160a01b0386169081179091556000908152600860205260409020805460ff191690911790555b6001600160a01b0383166000908152600160209081526040808320859055600e82529091208251610c2292840190614ea4565b50505050565b6001600160a01b0381166000908152600e6020908152604091829020805483518184028101840190945280845260609392830182828015610c9257602002820191906000526020600020905b81546001600160a01b03168152600190910190602001808311610c74575b50505050509050919050565b6006546001600160a01b03163314610ce65760405162461bcd60e51b81526020600482015260176024820152600080516020615f8a833981519152604482015260640161080e565b612710811115610d385760405162461bcd60e51b815260206004820152601b60248201527f6d696e696d756d2070657263656e7461676520746f6f20686967680000000000604482015260640161080e565b600255565b6006546001600160a01b03163314610d855760405162461bcd60e51b81526020600482015260176024820152600080516020615f8a833981519152604482015260640161080e565b6001600160a01b03821660009081526008602052604090205460ff16610de55760405162461bcd60e51b815260206004820152601560248201527434b73b30b634b2103830bcb6b2b73a103a37b5b2b760591b604482015260640161080e565b60008111610e2d5760405162461bcd60e51b81526020600482015260156024820152746d696e696d756d20707269636520746f6f206c6f7760581b604482015260640161080e565b6001600160a01b03909116600090815260016020526040902055565b6001600160a01b0382166000908152600c602090815260408083208484529091529020548015610c2257610e7d8383614955565b610ec95760405162461bcd60e51b815260206004820152601360248201527f746f6b656e206973206e6f74206275726e656400000000000000000000000000604482015260640161080e565b6001600160a01b038481166000908152600a6020526040908190205490516338b4afd960e01b8152911660048201526024810182905273__$44a7a846c777c9454ac00bd07cdc6ca7e7$__906338b4afd99060440160006040518083038186803b158015610f3657600080fd5b505af4158015610f4a573d6000803e3d6000fd5b5050506000828152600d602052604080822060098101549151637965d56d60e01b8152600481019290925292507f00000000000000000000000000000000000000000000000000000000000000006001600160a01b031690637965d56d9060240160206040518083038186803b158015610fc357600080fd5b505afa158015610fd7573d6000803e3d6000fd5b505050506040513d601f19601f82011682018060405250810190610ffb919061538e565b9050801561103d57600482015461103d907f0000000000000000000000000000000000000000000000000000000000000000906001600160a01b0316836149e5565b60048201546001600160a01b039081166000908152600b602052604090205416156110d4576004828101546001600160a01b039081166000908152600b602052604090819020549051634cc8221560e01b81529283018690521690634cc8221590602401600060405180830381600087803b1580156110bb57600080fd5b505af11580156110cf573d6000803e3d6000fd5b505050505b50506000818152600d602090815260408083208381556001810180546001600160a01b0319908116909155600282018590556003820180548216905560048201805482169055600582018054909116905560068101849055600781018490556008810184905560098101849055600a01805460ff191690556001600160a01b0386168352600c825280832085845290915281205550505050565b6006546001600160a01b031633146111b65760405162461bcd60e51b81526020600482015260176024820152600080516020615f8a833981519152604482015260640161080e565b6004546001600160a01b031661120e5760405162461bcd60e51b815260206004820152601560248201527f66656520636f6c6c6563746f72206e6f74207365740000000000000000000000604482015260640161080e565b61271081111561124e5760405162461bcd60e51b815260206004820152600b60248201526a696e76616c69642066656560a81b604482015260640161080e565b600355565b6001600160a01b0382166000908152600c602090815260408083208484529091529020548015611381576000818152600d60205260409020600401546001600160a01b0316338114806112ae5750336001600160a01b038516145b6112fa5760405162461bcd60e51b815260206004820152601560248201527f6f776e657220686173206e6f74206368616e6765640000000000000000000000604482015260640161080e565b6001600160a01b038181166000908152600b6020526040908190205490516338b4afd960e01b8152911660048201526024810183905273__$44a7a846c777c9454ac00bd07cdc6ca7e7$__906338b4afd99060440160006040518083038186803b15801561136757600080fd5b505af415801561137b573d6000803e3d6000fd5b50505050505b505050565b6001600160a01b038082166000908152600b6020526040812054909182911680156114ef576000816001600160a01b0316638f7dcfa36040518163ffffffff1660e01b815260040160606040518083038186803b1580156113e657600080fd5b505afa1580156113fa573d6000803e3d6000fd5b505050506040513d601f19601f8201168201806040525081019061141e919061531b565b90505b6040810151156109665760008061143b8360400151614a5d565b909250905061144a81836157ae565b61145490876157ae565b955061146081866157ae565b6020840151604051634a83e9cd60e11b81529196506001600160a01b03861691639507d39a916114969160040190815260200190565b60606040518083038186803b1580156114ae57600080fd5b505afa1580156114c2573d6000803e3d6000fd5b505050506040513d601f19601f820116820180604052508101906114e6919061531b565b92505050611421565b50915091565b60608180156115ed578067ffffffffffffffff81111561152557634e487b7160e01b600052604160045260246000fd5b60405190808252806020026020018201604052801561155e57816020015b61154b614dea565b8152602001906001900390816115435790505b50915060005b818110156115eb576115ad600d600087878581811061159357634e487b7160e01b600052603260045260246000fd5b905060200201358152602001908152602001600020614373565b8382815181106115cd57634e487b7160e01b600052603260045260246000fd5b602002602001018190525080806115e39061585f565b915050611564565b505b5092915050565b6000828152600d60205260408082206001810154600282015492516331a9108f60e11b81529193926001600160a01b0390911691636352211e9161163e9160040190815260200190565b60206040518083038186803b15801561165657600080fd5b505afa15801561166a573d6000803e3d6000fd5b505050506040513d601f19601f8201168201806040525081019061168e9190614fb2565b9050336001600160a01b038216146116d65760405162461bcd60e51b81526020600482015260176024820152600080516020615f8a833981519152604482015260640161080e565b6000806116e286614a5d565b91509150808511156117365760405162461bcd60e51b815260206004820152601660248201527f616d6f756e7420657863656564732062616c616e636500000000000000000000604482015260640161080e565b6117617f000000000000000000000000000000000000000000000000000000000000000084876149e5565b600061176d8683615805565b90506001600160a01b037f000000000000000000000000000000000000000000000000000000000000000016631bd396746117a883866157ae565b6040518263ffffffff1660e01b81526004016117c691815260200190565b60206040518083038186803b1580156117de57600080fd5b505afa1580156117f2573d6000803e3d6000fd5b505050506040513d601f19601f82011682018060405250810190611816919061538e565b60098601556118258184615805565b600886015560408051838152602081018590526001600160a01b0386169189917f251cec697c3733beaecd18442a10267faf29ba8ec86451eb9c94416e55de752b910160405180910390a350505050505050565b60008061188583614a5d565b949350505050565b6006546001600160a01b031633146118d55760405162461bcd60e51b81526020600482015260176024820152600080516020615f8a833981519152604482015260640161080e565b6001600160a01b03166000908152600760205260409020805460ff19166001179055565b6002600054141561194c5760405162461bcd60e51b815260206004820152601f60248201527f5265656e7472616e637947756172643a207265656e7472616e742063616c6c00604482015260640161080e565b60026000908155818152600d602052604090208054821480156119735750600a81015460ff165b6119ae5760405162461bcd60e51b815260206004820152600c60248201526b696e76616c6964206974656d60a01b604482015260640161080e565b6000828152600f6020908152604080832083805290915281205433919060ff1615806119fc57506000848152600f602090815260408083206001600160a01b038616845290915290205460ff165b611a485760405162461bcd60e51b815260206004820152600f60248201527f6e6f742077686974656c69737465640000000000000000000000000000000000604482015260640161080e565b60068301546007840154600090611a5f9083615805565b9050811561217a5760058501546001600160a01b03166000818152600e602052604090208054611aa357611a9e6001600160a01b038316873087614ab1565b611c43565b611ab86001600160a01b038316873087614ab1565b60405163095ea7b360e01b81526001600160a01b037f0000000000000000000000000000000000000000000000000000000000000000811660048301526024820185905283169063095ea7b390604401602060405180830381600087803b158015611b2257600080fd5b505af1158015611b36573d6000803e3d6000fd5b505050506040513d601f19601f82011682018060405250810190611b5a9190615278565b506040516338ed173960e01b81526000906001600160a01b037f000000000000000000000000000000000000000000000000000000000000000016906338ed173990611bb290879085908790309042906004016156e6565b600060405180830381600087803b158015611bcc57600080fd5b505af1158015611be0573d6000803e3d6000fd5b505050506040513d6000823e601f3d908101601f19168201604052611c0891908101906151e5565b90508060018251611c199190615805565b81518110611c3757634e487b7160e01b600052603260045260246000fd5b60200260200101519350505b600787015415611e325760035415611da2576127106003548860070154611c6a91906157e6565b611c7491906157c6565b94506000858860070154611c889190615805565b600389015460405163a9059cbb60e01b81526001600160a01b0391821660048201526024810183905291925084169063a9059cbb90604401602060405180830381600087803b158015611cda57600080fd5b505af1158015611cee573d6000803e3d6000fd5b505050506040513d601f19601f82011682018060405250810190611d129190615278565b506004805460405163a9059cbb60e01b81526001600160a01b03918216928101929092526024820188905284169063a9059cbb90604401602060405180830381600087803b158015611d6357600080fd5b505af1158015611d77573d6000803e3d6000fd5b505050506040513d601f19601f82011682018060405250810190611d9b9190615278565b5050611e32565b6003870154600788015460405163a9059cbb60e01b81526001600160a01b03928316600482015260248101919091529083169063a9059cbb90604401602060405180830381600087803b158015611df857600080fd5b505af1158015611e0c573d6000803e3d6000fd5b505050506040513d601f19601f82011682018060405250810190611e309190615278565b505b82156121775760405163095ea7b360e01b81526001600160a01b037f000000000000000000000000000000000000000000000000000000000000000081166004830152602482018590527f0000000000000000000000000000000000000000000000000000000000000000169063095ea7b390604401602060405180830381600087803b158015611ec257600080fd5b505af1158015611ed6573d6000803e3d6000fd5b505050506040513d601f19601f82011682018060405250810190611efa9190615278565b50604051637acb775760e01b8152600481018490523060248201527f00000000000000000000000000000000000000000000000000000000000000006001600160a01b031690637acb775790604401602060405180830381600087803b158015611f6357600080fd5b505af1158015611f77573d6000803e3d6000fd5b505050506040513d601f19601f82011682018060405250810190611f9b9190615278565b50604051630f41a04d60e11b81523060048201527f00000000000000000000000000000000000000000000000000000000000000006001600160a01b031690631e83409a90602401600060405180830381600087803b158015611ffd57600080fd5b505af1158015612011573d6000803e3d6000fd5b505050508260008860090154116120295760006120c7565b6009880154604051637965d56d60e01b815260048101919091527f00000000000000000000000000000000000000000000000000000000000000006001600160a01b031690637965d56d9060240160206040518083038186803b15801561208f57600080fd5b505afa1580156120a3573d6000803e3d6000fd5b505050506040513d601f19601f820116820180604052508101906120c7919061538e565b6120d191906157ae565b600888018190556040516306f4e59d60e21b815260048101919091527f00000000000000000000000000000000000000000000000000000000000000006001600160a01b031690631bd396749060240160206040518083038186803b15801561213957600080fd5b505afa15801561214d573d6000803e3d6000fd5b505050506040513d601f19601f82011682018060405250810190612171919061538e565b60098801555b50505b60018501546002860154604051632142170760e11b81523060048201526001600160a01b03878116602483015260448201929092529116906342842e0e90606401600060405180830381600087803b1580156121d557600080fd5b505af11580156121e9573d6000803e3d6000fd5b50505050600485810180546001600160a01b0319166001600160a01b0387811691909117909155600a8701805460ff19169055601154604051634cc8221560e01b81529283018990521690634cc8221590602401600060405180830381600087803b15801561225757600080fd5b505af115801561226b573d6000803e3d6000fd5b5050604051633e23bcbb60e11b8152600b60048201526001600160a01b03871660248201526044810189905273__$44a7a846c777c9454ac00bd07cdc6ca7e7$__9250637c477976915060640160006040518083038186803b1580156122d057600080fd5b505af41580156122e4573d6000803e3d6000fd5b505050506001850154600286015460405163589a174360e01b815260048101919091526000916001600160a01b03169063589a17439060240160206040518083038186803b15801561233557600080fd5b505afa158015612349573d6000803e3d6000fd5b505050506040513d601f19601f8201168201806040525081019061236d9190614fb2565b6001600160a01b03818116600090815260096020526040908190205490516338b4afd960e01b8152911660048201526024810189905290915073__$44a7a846c777c9454ac00bd07cdc6ca7e7$__906338b4afd99060440160006040518083038186803b1580156123dd57600080fd5b505af41580156123f1573d6000803e3d6000fd5b5050506000888152600f602090815260408083208380528252808320805460ff19908116909155308452928190208054909316600190811790935560028a0154928a015460058b015460068c015460088d015484516001600160a01b038e8116825293841696810196909652858501919091526060850152608084018a9052915193945016918a917f629cadcd430142dd9c11f4216494dcd6c02127ada59395b2ba41e867f654fae4919081900360a00190a4505060016000555050505050565b6006546001600160a01b031633146124fa5760405162461bcd60e51b81526020600482015260176024820152600080516020615f8a833981519152604482015260640161080e565b6001600160a01b0381161515806125115750600354155b61255d5760405162461bcd60e51b815260206004820152601560248201527f696e76616c69642066656520636f6c6c6563746f720000000000000000000000604482015260640161080e565b600480546001600160a01b0319166001600160a01b0392909216919091179055565b6006546001600160a01b031633146125c75760405162461bcd60e51b81526020600482015260176024820152600080516020615f8a833981519152604482015260640161080e565b7f00000000000000000000000000000000000000000000000000000000000000006001600160a01b0316816001600160a01b0316141561260657600080fd5b6001600160a01b0381166000908152600860209081526040808320805460ff19169055600e909152812061263991614f09565b6001600160a01b038116600090815260016020526040812081905560105490805b828110156127595781156126fc576010818154811061268957634e487b7160e01b600052603260045260246000fd5b6000918252602090912001546001600160a01b031660106126ab600184615805565b815481106126c957634e487b7160e01b600052603260045260246000fd5b9060005260206000200160006101000a8154816001600160a01b0302191690836001600160a01b03160217905550612747565b836001600160a01b03166010828154811061272757634e487b7160e01b600052603260045260246000fd5b6000918252602090912001546001600160a01b0316141561274757600191505b806127518161585f565b91505061265a565b50801561138157601080548061277f57634e487b7160e01b600052603160045260246000fd5b600082815260209020810160001990810180546001600160a01b0319169055019055505050565b3360009081526007602052604090205460ff166128055760405162461bcd60e51b815260206004820152601960248201527f63616c6c6572206973206e6f742077686974656c697374656400000000000000604482015260640161080e565b6001600160a01b0382166000908152600c602090815260408083208484529091529020548015610c22576001600160a01b038481166000908152600a6020526040902054166128a75760405161285a90614f2a565b604051809103906000f080158015612876573d6000803e3d6000fd5b506001600160a01b038581166000908152600a6020526040902080546001600160a01b031916929091169190911790555b6001600160a01b038481166000908152600a60205260409081902054905163e33b870760e01b81526004810184905291169063e33b870790602401600060405180830381600087803b1580156128fc57600080fd5b505af115801561137b573d6000803e3d6000fd5b6011546060906000908190612930906001600160a01b03168786886140e2565b915091508067ffffffffffffffff81111561295b57634e487b7160e01b600052604160045260246000fd5b60405190808252806020026020018201604052801561299457816020015b612981614dea565b8152602001906001900390816129795790505b5092508160005b82811015612a94576040808301516000908152600d602052206129bd90614373565b8582815181106129dd57634e487b7160e01b600052603260045260246000fd5b60209081029190910181019190915260115460408051630e891c2760e01b815285516004820152928501516024840152840151604483015287151560648301526001600160a01b031690630e891c279060840160606040518083038186803b158015612a4857600080fd5b505afa158015612a5c573d6000803e3d6000fd5b505050506040513d601f19601f82011682018060405250810190612a80919061531b565b915080612a8c8161585f565b91505061299b565b505050509392505050565b6001600160a01b038085166000908152600a60205260409020546060911680156107c157600080612ad2838887896140e2565b915091508067ffffffffffffffff811115612afd57634e487b7160e01b600052604160045260246000fd5b604051908082528060200260200182016040528015612b3657816020015b612b23614dea565b815260200190600190039081612b1b5790505b5093508160005b828110156107bc576040808301516000908152600d60205220612b5f90614373565b868281518110612b7f57634e487b7160e01b600052603260045260246000fd5b60209081029190910181019190915260408051630e891c2760e01b815284516004820152918401516024830152830151604482015287151560648201526001600160a01b03861690630e891c279060840160606040518083038186803b158015612be857600080fd5b505afa158015612bfc573d6000803e3d6000fd5b505050506040513d601f19601f82011682018060405250810190612c20919061531b565b915080612c2c8161585f565b915050612b3d565b600080612c4083614a5d565b509392505050565b60026000541415612c9b5760405162461bcd60e51b815260206004820152601f60248201527f5265656e7472616e637947756172643a207265656e7472616e742063616c6c00604482015260640161080e565b60026000908155818152600d60205260409020600381015481546001600160a01b03909116908314612d0f5760405162461bcd60e51b815260206004820152600f60248201527f696e76616c6964206974656d2069640000000000000000000000000000000000604482015260640161080e565b6001600160a01b0381163314612d675760405162461bcd60e51b815260206004820152601860248201527f63616c6c6572206973206e6f74207468652073656c6c65720000000000000000604482015260640161080e565b6001820154600283015460038401546040516323b872dd60e01b81523060048201526001600160a01b03918216602482015260448101839052921691829081906323b872dd90606401600060405180830381600087803b158015612dca57600080fd5b505af1158015612dde573d6000803e3d6000fd5b505050506003850180546001600160a01b0319908116909155600480870180546001600160a01b038816931683179055600a8701805460ff19169055604051633e23bcbb60e11b8152600b9181019190915260248101919091526044810187905273__$44a7a846c777c9454ac00bd07cdc6ca7e7$__90637c4779769060640160006040518083038186803b158015612e7657600080fd5b505af4158015612e8a573d6000803e3d6000fd5b5050601154604051634cc8221560e01b8152600481018a90526001600160a01b039091169250634cc822159150602401600060405180830381600087803b158015612ed457600080fd5b505af1158015612ee8573d6000803e3d6000fd5b505060405163589a174360e01b815260048101859052600092506001600160a01b038616915063589a17439060240160206040518083038186803b158015612f2f57600080fd5b505afa158015612f43573d6000803e3d6000fd5b505050506040513d601f19601f82011682018060405250810190612f679190614fb2565b6001600160a01b03818116600090815260096020526040908190205490516338b4afd960e01b8152911660048201526024810189905290915073__$44a7a846c777c9454ac00bd07cdc6ca7e7$__906338b4afd99060440160006040518083038186803b158015612fd757600080fd5b505af4158015612feb573d6000803e3d6000fd5b5050505085600801546000141561305d5760405162c6239360e11b815260048101849052600060248201526001600160a01b0385169063018c472690604401600060405180830381600087803b15801561304457600080fd5b505af1158015613058573d6000803e3d6000fd5b505050505b6002860154600187015487546040516001600160a01b03909216917fce438b6cfecd51c87c70deb47c0e4af51fa8bf618405102abcfe6a8408c1385190600090a4505060016000555050505050565b6130b4614dea565b6000828152600d602052604090206130cb90614373565b92915050565b6060601080548060200260200160405190810160405280929190818152602001828054801561312957602002820191906000526020600020905b81546001600160a01b0316815260019091019060200180831161310b575b5050505050905090565b6000818152600d602052604080822060018101546002820154925163589a174360e01b81529193926001600160a01b039091169163589a17439161317d9160040190815260200190565b60206040518083038186803b15801561319557600080fd5b505afa1580156131a9573d6000803e3d6000fd5b505050506040513d601f19601f820116820180604052508101906131cd9190614fb2565b9050336001600160a01b038216146132275760405162461bcd60e51b815260206004820152601960248201527f63616c6c6572206973206e6f74207468652063726561746f7200000000000000604482015260640161080e565b50506000908152600f602090815260408083208380529091529020805460ff19169055565b6006546001600160a01b031633146132945760405162461bcd60e51b81526020600482015260176024820152600080516020615f8a833981519152604482015260640161080e565b600680546001600160a01b0319166001600160a01b0392909216919091179055565b80806133045760405162461bcd60e51b815260206004820152601060248201527f656d707479206275796572206c69737400000000000000000000000000000000604482015260640161080e565b6000848152600d602052604080822060018101546002820154925163589a174360e01b81529193926001600160a01b039091169163589a17439161334e9160040190815260200190565b60206040518083038186803b15801561336657600080fd5b505afa15801561337a573d6000803e3d6000fd5b505050506040513d601f19601f8201168201806040525081019061339e9190614fb2565b90506001600160a01b03811633146133f85760405162461bcd60e51b815260206004820152601960248201527f63616c6c6572206973206e6f74207468652063726561746f7200000000000000604482015260640161080e565b6000868152600f602090815260408083203080855292529091205460ff16156134635760405162461bcd60e51b815260206004820152601360248201527f6e6f7420696e697469616c206c697374696e6700000000000000000000000000604482015260640161080e565b6000878152600f602090815260408083208380529091528120805460ff191660011790555b8481101561137b5760008787838181106134b257634e487b7160e01b600052603260045260246000fd5b90506020020160208101906134c79190614f96565b60008a8152600f602052604081209192506001600160a01b03808416908616141591908a8a8681811061350a57634e487b7160e01b600052603260045260246000fd5b905060200201602081019061351f9190614f96565b6001600160a01b031681526020810191909152604001600020805460ff191691151591909117905550806135528161585f565b915050613488565b3360009081526007602052604090205460ff166135b95760405162461bcd60e51b815260206004820152601960248201527f63616c6c6572206973206e6f742077686974656c697374656400000000000000604482015260640161080e565b6040516331a9108f60e11b8152600481018290526000906001600160a01b03841690636352211e9060240160206040518083038186803b1580156135fc57600080fd5b505afa158015613610573d6000803e3d6000fd5b505050506040513d601f19601f820116820180604052508101906136349190614fb2565b6001600160a01b0384166000908152600c60209081526040808320868452909152902054909150806137955760056000815461366f9061585f565b91829055506001600160a01b038581166000818152600c6020908152604080832089845282528083208690558051610160810182528681528083019485528082018a8152606082018581528a88166080840190815260a0840187815260c0850188815260e0860189815261010087018a815261012088018b815261014089018c81528f8d52600d909b5298909a209651875599516001870180546001600160a01b0319908116928e169290921790559451600287015592516003860180548616918c1691909117905590516004850180548516918b169190911790555160058401805490931698169790971790559451600686015592516007850155905160088401559051600983015551600a909101805460ff191691151591909117905590506137da565b6000818152600d602052604090206003810180546001600160a01b03199081169091556004820180549091166001600160a01b038516179055600a01805460ff191690555b604051633e23bcbb60e11b8152600b60048201526001600160a01b03831660248201526044810182905273__$44a7a846c777c9454ac00bd07cdc6ca7e7$__90637c4779769060640160006040518083038186803b15801561383b57600080fd5b505af415801561384f573d6000803e3d6000fd5b5050505082846001600160a01b0316827f2e979c2abee3feb11b09d0199e22cecd37f21b413de97abf9e75bc1d0853dfe760405160405180910390a450505050565b600260005414156138e45760405162461bcd60e51b815260206004820152601f60248201527f5265656e7472616e637947756172643a207265656e7472616e742063616c6c00604482015260640161080e565b600260009081556001600160a01b0384168152600860205260409020543390869060ff1661394c5760405162461bcd60e51b815260206004820152601560248201527434b73b30b634b2103830bcb6b2b73a103a37b5b2b760591b604482015260640161080e565b6040516331a9108f60e11b8152600481018790526001600160a01b038084169190831690636352211e9060240160206040518083038186803b15801561399157600080fd5b505afa1580156139a5573d6000803e3d6000fd5b505050506040513d601f19601f820116820180604052508101906139c99190614fb2565b6001600160a01b031614613a0d5760405162461bcd60e51b81526020600482015260176024820152600080516020615f8a833981519152604482015260640161080e565b6001600160a01b038516600090815260016020526040902054841015613a655760405162461bcd60e51b815260206004820152600d60248201526c707269636520746f6f206c6f7760981b604482015260640161080e565b6127108361ffff161115613abb5760405162461bcd60e51b815260206004820152601b60248201527f7374616b696e672070657263656e7461676520746f6f20686967680000000000604482015260640161080e565b6002548361ffff161015613b115760405162461bcd60e51b815260206004820152601a60248201527f7374616b696e672070657263656e7461676520746f6f206c6f77000000000000604482015260640161080e565b6000612710613b2461ffff8616876157e6565b613b2e91906157c6565b90506000613b3c8287615805565b6001600160a01b038a166000908152600c602090815260408083208c845290915290205490915080613d5b57600560008154613b779061585f565b919050819055600c60008c6001600160a01b03166001600160a01b0316815260200190815260200160002060008b815260200190815260200160002081905590506040518061016001604052808281526020018b6001600160a01b031681526020018a8152602001866001600160a01b03168152602001306001600160a01b03168152602001896001600160a01b03168152602001888152602001838152602001600081526020016000815260200160011515815250600d60008381526020019081526020016000206000820151816000015560208201518160010160006101000a8154816001600160a01b0302191690836001600160a01b031602179055506040820151816002015560608201518160030160006101000a8154816001600160a01b0302191690836001600160a01b0316021790555060808201518160040160006101000a8154816001600160a01b0302191690836001600160a01b0316021790555060a08201518160050160006101000a8154816001600160a01b0302191690836001600160a01b0316021790555060c0820151816006015560e082015181600701556101008201518160080155610120820151816009015561014082015181600a0160006101000a81548160ff021916908315150217905550905050613dc6565b6000818152600d602052604090206003810180546001600160a01b038089166001600160a01b031992831617909255600483018054821630179055600583018054928c16929091169190911790556006810188905560078101839055600a01805460ff191660011790555b60405162c6239360e11b8152600481018a9052600160248201526001600160a01b038b169063018c472690604401600060405180830381600087803b158015613e0e57600080fd5b505af1158015613e22573d6000803e3d6000fd5b50506040516323b872dd60e01b81526001600160a01b038881166004830152306024830152604482018d9052871692506323b872dd9150606401600060405180830381600087803b158015613e7657600080fd5b505af1158015613e8a573d6000803e3d6000fd5b505050506001600160a01b038581166000908152600b6020526040908190205490516338b4afd960e01b8152911660048201526024810182905273__$44a7a846c777c9454ac00bd07cdc6ca7e7$__906338b4afd99060440160006040518083038186803b158015613efb57600080fd5b505af4158015613f0f573d6000803e3d6000fd5b505060115460405163e33b870760e01b8152600481018590526001600160a01b03909116925063e33b87079150602401600060405180830381600087803b158015613f5957600080fd5b505af1158015613f6d573d6000803e3d6000fd5b505060405163589a174360e01b8152600481018c9052600092506001600160a01b038d16915063589a17439060240160206040518083038186803b158015613fb457600080fd5b505afa158015613fc8573d6000803e3d6000fd5b505050506040513d601f19601f82011682018060405250810190613fec9190614fb2565b604051633e23bcbb60e11b8152600960048201526001600160a01b03821660248201526044810184905290915073__$44a7a846c777c9454ac00bd07cdc6ca7e7$__90637c4779769060640160006040518083038186803b15801561405057600080fd5b505af4158015614064573d6000803e3d6000fd5b5050604080516001600160a01b038a81168252600060208301528d811682840152606082018d90526080820188905260a0820189905291518e9450918f16925085917f1f2bc42afd1ecfa86cd3bd1c90c99e3c356a871aba9768b1d4abe60dc41d6aa79181900360c00190a450506001600055505050505050505050565b61410660405180606001604052806000815260200160008152602001600081525090565b6000841561421c57604051634a83e9cd60e11b8152600481018690526001600160a01b03871690630e891c27908290639507d39a9060240160606040518083038186803b15801561415657600080fd5b505afa15801561416a573d6000803e3d6000fd5b505050506040513d601f19601f8201168201806040525081019061418e919061531b565b604080516001600160e01b031960e085901b16815282516004820152602083015160248201529101516044820152861515606482015260840160606040518083038186803b1580156141df57600080fd5b505afa1580156141f3573d6000803e3d6000fd5b505050506040513d601f19601f82011682018060405250810190614217919061531b565b614295565b604051631b253ed160e21b815284151560048201526001600160a01b03871690636c94fb449060240160606040518083038186803b15801561425d57600080fd5b505afa158015614271573d6000803e3d6000fd5b505050506040513d601f19601f82011682018060405250810190614295919061531b565b915081835b6000811180156142ad5750604082015115155b1561436857826142bc8161585f565b60408051630e891c2760e01b8152855160048201526020860151602482015290850151604482015288151560648201529094506001600160a01b038a169150630e891c279060840160606040518083038186803b15801561431c57600080fd5b505afa158015614330573d6000803e3d6000fd5b505050506040513d601f19601f82011682018060405250810190614354919061531b565b91508061436081615848565b91505061429a565b505094509492505050565b61437b614dea565b8154815260018201546001600160a01b039081166020830152600283015460408301526005830154166101a082015260068201546101c0820152600a82015460ff161580156101208301526145685760038201546001600160a01b039081166101408301819052604051637ae2b9c160e11b815260048101919091527f00000000000000000000000000000000000000000000000000000000000000009091169063f5c573829060240160006040518083038186803b15801561443d57600080fd5b505afa158015614451573d6000803e3d6000fd5b505050506040513d6000823e601f3d908101601f191682016040526144799190810190615294565b610160820152610140810151604051633c02914560e11b81526001600160a01b0391821660048201527f000000000000000000000000000000000000000000000000000000000000000090911690637805228a9060240160006040518083038186803b1580156144e857600080fd5b505afa1580156144fc573d6000803e3d6000fd5b505050506040513d6000823e601f3d908101601f191682016040526145249190810190615294565b6101808201526101c08101516007830154614541906127106157e6565b61454b91906157c6565b6101e0820152805161455c90614a5d565b50610200820152614773565b80602001516001600160a01b0316636352211e82604001516040518263ffffffff1660e01b815260040161459e91815260200190565b60206040518083038186803b1580156145b657600080fd5b505afa1580156145ca573d6000803e3d6000fd5b505050506040513d601f19601f820116820180604052508101906145ee9190614fb2565b6001600160a01b0390811660c08301819052604051637ae2b9c160e11b815260048101919091527f00000000000000000000000000000000000000000000000000000000000000009091169063f5c573829060240160006040518083038186803b15801561465b57600080fd5b505afa15801561466f573d6000803e3d6000fd5b505050506040513d6000823e601f3d908101601f191682016040526146979190810190615294565b60e082015260c0810151604051633c02914560e11b81526001600160a01b0391821660048201527f000000000000000000000000000000000000000000000000000000000000000090911690637805228a9060240160006040518083038186803b15801561470457600080fd5b505afa158015614718573d6000803e3d6000fd5b505050506040513d6000823e601f3d908101601f191682016040526147409190810190615294565b6101008201528051600090819061475690614a5d565b909250905061476581836157ae565b610200840152610220830152505b80602001516001600160a01b031663589a174382604001516040518263ffffffff1660e01b81526004016147a991815260200190565b60206040518083038186803b1580156147c157600080fd5b505afa1580156147d5573d6000803e3d6000fd5b505050506040513d601f19601f820116820180604052508101906147f99190614fb2565b6001600160a01b0390811660608301819052604051637ae2b9c160e11b815260048101919091527f00000000000000000000000000000000000000000000000000000000000000009091169063f5c573829060240160006040518083038186803b15801561486657600080fd5b505afa15801561487a573d6000803e3d6000fd5b505050506040513d6000823e601f3d908101601f191682016040526148a29190810190615294565b60808201526060810151604051633c02914560e11b81526001600160a01b0391821660048201527f000000000000000000000000000000000000000000000000000000000000000090911690637805228a9060240160006040518083038186803b15801561490f57600080fd5b505afa158015614923573d6000803e3d6000fd5b505050506040513d6000823e601f3d908101601f1916820160405261494b9190810190615294565b60a0820152919050565b6040516331a9108f60e11b8152600481018290526000906001600160a01b03841690636352211e9060240160206040518083038186803b15801561499857600080fd5b505afa9250505080156149c8575060408051601f3d908101601f191682019092526149c591810190614fb2565b60015b6149d4575060016130cb565b6001600160a01b03161590506130cb565b6040516001600160a01b03831660248201526044810182905261138190849063a9059cbb60e01b906064015b60408051601f198184030181529190526020810180517bffffffffffffffffffffffffffffffffffffffffffffffffffffffff166001600160e01b031990931692909217909152614ae9565b6000818152600d6020526040812081908180614a7883614bbb565b909250905060006002614a8b8385615805565b614a9591906157c6565b90506000614aa38285615805565b989197509095505050505050565b6040516001600160a01b0380851660248301528316604482015260648101829052610c229085906323b872dd60e01b90608401614a11565b6000614b3e826040518060400160405280602081526020017f5361666545524332303a206c6f772d6c6576656c2063616c6c206661696c6564815250856001600160a01b0316614c709092919063ffffffff16565b8051909150156113815780806020019051810190614b5c9190615278565b6113815760405162461bcd60e51b815260206004820152602a60248201527f5361666545524332303a204552433230206f7065726174696f6e20646964206e6044820152691bdd081cdd58d8d9595960b21b606482015260840161080e565b60008060007f00000000000000000000000000000000000000000000000000000000000000006001600160a01b0316637965d56d85600901546040518263ffffffff1660e01b8152600401614c1291815260200190565b60206040518083038186803b158015614c2a57600080fd5b505afa158015614c3e573d6000803e3d6000fd5b505050506040513d601f19601f82011682018060405250810190614c62919061538e565b600890940154939492505050565b6060614c7f8484600085614c89565b90505b9392505050565b606082471015614cea5760405162461bcd60e51b815260206004820152602660248201527f416464726573733a20696e73756666696369656e742062616c616e636520666f6044820152651c8818d85b1b60d21b606482015260840161080e565b843b614d385760405162461bcd60e51b815260206004820152601d60248201527f416464726573733a2063616c6c20746f206e6f6e2d636f6e7472616374000000604482015260640161080e565b600080866001600160a01b03168587604051614d5491906155f6565b60006040518083038185875af1925050503d8060008114614d91576040519150601f19603f3d011682016040523d82523d6000602084013e614d96565b606091505b5091509150614da6828286614db1565b979650505050505050565b60608315614dc0575081614c82565b825115614dd05782518084602001fd5b8160405162461bcd60e51b815260040161080e91906156c0565b6040518061024001604052806000815260200160006001600160a01b031681526020016000815260200160006001600160a01b03168152602001606081526020016060815260200160006001600160a01b03168152602001606081526020016060815260200160001515815260200160006001600160a01b03168152602001606081526020016060815260200160006001600160a01b03168152602001600081526020016000815260200160008152602001600081525090565b828054828255906000526020600020908101928215614ef9579160200282015b82811115614ef957825182546001600160a01b0319166001600160a01b03909116178255602090920191600190910190614ec4565b50614f05929150614f37565b5090565b5080546000825590600052602060002090810190614f279190614f37565b50565b6106c0806158ca83390190565b5b80821115614f055760008155600101614f38565b60008083601f840112614f5d578182fd5b50813567ffffffffffffffff811115614f74578182fd5b6020830191508360208260051b8501011115614f8f57600080fd5b9250929050565b600060208284031215614fa7578081fd5b8135614c82816158a6565b600060208284031215614fc3578081fd5b8151614c82816158a6565b600080600060608486031215614fe2578182fd5b8335614fed816158a6565b92506020840135614ffd816158a6565b929592945050506040919091013590565b60008060408385031215615020578182fd5b823561502b816158a6565b946020939093013593505050565b600080600080600060a08688031215615050578081fd5b853561505b816158a6565b9450602086013593506040860135615072816158a6565b925060608601359150608086013561ffff8116811461508f578182fd5b809150509295509295909350565b6000806000606084860312156150b1578283fd5b83356150bc816158a6565b92506020848101359250604085013567ffffffffffffffff8111156150df578283fd5b8501601f810187136150ef578283fd5b80356151026150fd8261578a565b615759565b8082825284820191508484018a868560051b8701011115615121578687fd5b8694505b8385101561514c578035615138816158a6565b835260019490940193918501918501615125565b5080955050505050509250925092565b60008060008060808587031215615171578384fd5b843561517c816158a6565b93506020850135925060408501359150606085013561519a816158bb565b939692955090935050565b600080602083850312156151b7578182fd5b823567ffffffffffffffff8111156151cd578283fd5b6151d985828601614f4c565b90969095509350505050565b600060208083850312156151f7578182fd5b825167ffffffffffffffff81111561520d578283fd5b8301601f8101851361521d578283fd5b805161522b6150fd8261578a565b80828252848201915084840188868560051b870101111561524a578687fd5b8694505b8385101561526c57805183526001949094019391850191850161524e565b50979650505050505050565b600060208284031215615289578081fd5b8151614c82816158bb565b6000602082840312156152a5578081fd5b815167ffffffffffffffff808211156152bc578283fd5b818401915084601f8301126152cf578283fd5b8151818111156152e1576152e1615890565b6152f4601f8201601f1916602001615759565b915080825285602082850101111561530a578384fd5b6107c181602084016020860161581c565b60006060828403121561532c578081fd5b6040516060810181811067ffffffffffffffff8211171561534f5761534f615890565b80604052508251815260208301516020820152604083015160408201528091505092915050565b600060208284031215615387578081fd5b5035919050565b60006020828403121561539f578081fd5b5051919050565b6000806000604084860312156153ba578081fd5b83359250602084013567ffffffffffffffff8111156153d7578182fd5b6153e386828701614f4c565b9497909650939450505050565b60008060408385031215615402578182fd5b50508035926020909101359150565b600080600060608486031215615425578081fd5b8335925060208401359150604084013561543e816158bb565b809150509250925092565b6000815180845261546181602086016020860161581c565b601f01601f19169290920160200192915050565b600061024082518452602083015161549860208601826001600160a01b03169052565b506040830151604085015260608301516154bd60608601826001600160a01b03169052565b5060808301518160808601526154d582860182615449565b91505060a083015184820360a08601526154ef8282615449565b91505060c083015161550c60c08601826001600160a01b03169052565b5060e083015184820360e08601526155248282615449565b915050610100808401518583038287015261553f8382615449565b92505050610120808401516155578287018215159052565b5050610140838101516001600160a01b03169085015261016080840151858303828701526155858382615449565b9250505061018080840151858303828701526155a18382615449565b925050506101a0808401516155c0828701826001600160a01b03169052565b50506101c083810151908501526101e0808401519085015261020080840151908501526102209283015192909301919091525090565b6000825161560881846020870161581c565b9190910192915050565b6020808252825182820181905260009190848201906040850190845b818110156156535783516001600160a01b03168352928401929184019160010161562e565b50909695505050505050565b6000602080830181845280855180835260408601915060408160051b8701019250838701855b828110156156b357603f198886030184526156a1858351615475565b94509285019290850190600101615685565b5092979650505050505050565b602081526000614c826020830184615449565b602081526000614c826020830184615475565b600060a082018783526020878185015260a0604085015281875480845260c0860191508885528285209350845b818110156157385784546001600160a01b031683526001948501949284019201615713565b50506001600160a01b03969096166060850152505050608001529392505050565b604051601f8201601f1916810167ffffffffffffffff8111828210171561578257615782615890565b604052919050565b600067ffffffffffffffff8211156157a4576157a4615890565b5060051b60200190565b600082198211156157c1576157c161587a565b500190565b6000826157e157634e487b7160e01b81526012600452602481fd5b500490565b60008160001904831182151516156158005761580061587a565b500290565b6000828210156158175761581761587a565b500390565b60005b8381101561583757818101518382015260200161581f565b83811115610c225750506000910152565b6000816158575761585761587a565b506000190190565b60006000198214156158735761587361587a565b5060010190565b634e487b7160e01b600052601160045260246000fd5b634e487b7160e01b600052604160045260246000fd5b6001600160a01b0381168114614f2757600080fd5b8015158114614f2757600080fdfe60a060405234801561001057600080fd5b5033606081901b608052610687610039600039600081816101e0015261042301526106876000f3fe608060405234801561001057600080fd5b50600436106100885760003560e01c80638f7dcfa31161005b5780638f7dcfa3146100f7578063949d225d146100ff5780639507d39a14610116578063e33b87071461012957600080fd5b80630e891c271461008d57806313d8c840146100c75780634cc82215146100cf5780636c94fb44146100e4575b600080fd5b6100a061009b36600461056f565b61013c565b60408051825181526020808401519082015291810151908201526060015b60405180910390f35b6100a0610180565b6100e26100dd3660046105f1565b6101de565b005b6100a06100f2366004610555565b610323565b6100a0610367565b61010860005481565b6040519081526020016100be565b6100a06101243660046105f1565b6103c4565b6100e26101373660046105f1565b610421565b61016060405180606001604052806000815260200160008152602001600081525090565b6101798261016f5783516103c4565b83602001516103c4565b9392505050565b6101a460405180606001604052806000815260200160008152602001600081525090565b5060028054600090815260036020908152604091829020825160608101845281548152600182015492810192909252909201549082015290565b7f000000000000000000000000000000000000000000000000000000000000000073ffffffffffffffffffffffffffffffffffffffff1633146102685760405162461bcd60e51b815260206004820152601760248201527f63616c6c6572206973206e6f7420746865206f776e657200000000000000000060448201526064015b60405180910390fd5b60008181526003602052604081208054600190910154825491929091819061028f90610609565b91829055506102a75760006002819055600155610303565b8260015414156102c857600083815260036020526040902060019081015490555b8260025414156102e5576000838152600360205260409020546002555b60008281526003602052604080822060010183905582825290208290555b505060009081526003602052604081208181556001810182905560020155565b61034760405180606001604052806000815260200160008152602001600081525090565b8161035957610354610180565b610361565b610361610367565b92915050565b61038b60405180606001604052806000815260200160008152602001600081525090565b50600180546000908152600360209081526040918290208251606081018452815481529381015491840191909152600201549082015290565b6103e860405180606001604052806000815260200160008152602001600081525090565b50600090815260036020908152604091829020825160608101845281548152600182015492810192909252600201549181019190915290565b7f000000000000000000000000000000000000000000000000000000000000000073ffffffffffffffffffffffffffffffffffffffff1633146104a65760405162461bcd60e51b815260206004820152601760248201527f63616c6c6572206973206e6f7420746865206f776e6572000000000000000000604482015260640161025f565b6104ca60405180606001604052806000815260200160008152602001600081525090565b604081018290526000805490806104e083610620565b909155506104f75760028290556001829055610516565b6002805480835260009081526003602052604090206001018390558290555b60009182526003602090815260409283902082518155908201516001820155910151600290910155565b8035801515811461055057600080fd5b919050565b600060208284031215610566578081fd5b61017982610540565b6000808284036080811215610582578182fd5b606081121561058f578182fd5b506040516060810181811067ffffffffffffffff821117156105bf57634e487b7160e01b83526041600452602483fd5b60409081528435825260208086013590830152848101359082015291506105e860608401610540565b90509250929050565b600060208284031215610602578081fd5b5035919050565b6000816106185761061861063b565b506000190190565b60006000198214156106345761063461063b565b5060010190565b634e487b7160e01b600052601160045260246000fdfea26469706673582212203da6ac77d46979253aeb19f11d6a36c43038f48d09f97ce175555024bbd37e8164736f6c6343000804003363616c6c6572206973206e6f7420746865206f776e6572000000000000000000a264697066735822122021636fb5769276720f4964446f8b160f3aaa4f3f00a44943aeffce25a588086964736f6c63430008040033",
  "libraries": {
    "SafeNidhiCollection": "0xDecC66Ac03a22166917F301Bb2EF21FA3F3c2832"
  },
  "devdoc": {
    "kind": "dev",
    "methods": {
      "addPaymentToken(address,uint256,address[])": {
        "details": "Adds a new token as payment option."
      },
      "addToBuyerWhitelist(uint256,address[])": {
        "details": "Whitelists a list of buyer addresses for the provided item. This will only affect the initial sale."
      },
      "addTokenToCreatorCollection(address,address,uint256)": {
        "details": "Adds the token to the creator's collection. This function can only be called from whitelisted NFT contracts."
      },
      "afterBurnToken(address,address,uint256)": {
        "details": "Called by any Nidhi NFT after it was burned. This will initiate the transfer of all SGURU tokens held by this token and delete all index entries associated with this token. Since this function's visibility is external, it will verify that the token was in fact burned."
      },
      "collectionSizesByOwner(address)": {
        "details": "Returns the collection sizes for the given address."
      },
      "delistMarketItem(uint256)": {
        "details": "Delists an item from the marketplace. The item itself will be transferred back to the seller."
      },
      "fetchItems(uint256[])": {
        "details": "Returns a list of items."
      },
      "fetchItemsByCreator(address,uint256,uint256,bool)": {
        "details": "Returns a page of items by creator."
      },
      "fetchItemsByOwner(address,uint256,uint256,bool)": {
        "details": "Returns a page of listed market items."
      },
      "fetchMarketItems(uint256,uint256,bool)": {
        "details": "Returns a page of listed market items."
      },
      "getMarketItem(uint256)": {
        "details": "Returns the market item for the provided id."
      },
      "getMarketItemId(address,uint256)": {
        "details": "Returns the market item id for the provided NFT. If the token is not on the marketplace, this function will return 0."
      },
      "getPaymentTokens()": {
        "details": "Returns all valid payment tokens."
      },
      "getSwapRoute(address)": {
        "details": "Returns the swap route for the given token."
      },
      "importMarketItem(address,uint256)": {
        "details": "Adds an arbitrary NFT to the user's collection."
      },
      "intrinsicValue(uint256)": {
        "details": "Returns the intrinsic value of the given market item."
      },
      "listMarketItem(address,uint256,address,uint256,uint16)": {
        "details": "Lists an item for sale on the marketplace. The item itself will be transferred to the marketplace."
      },
      "purchaseMarketItem(uint256)": {
        "details": "Sells the market item. Funds will be transferred to the seller and the staking contract. The ownership of the item will be transferred to the buyer."
      },
      "redeem(uint256,uint256)": {
        "details": "Transfers the redeemable value to the current owner."
      },
      "redeemable(uint256)": {
        "details": "Returns the redeemable value of the given market item."
      },
      "removePaymentToken(address)": {
        "details": "Removes a token from payment options."
      },
      "removeTokenFromOwnerCollection(address,uint256)": {
        "details": "Removes the provided token from the owner's collection. This function can be called by the owner or the contract of the NFT that should be removed. The latter should only remove the token, if there was an external token ownership transfer."
      },
      "resetBuyerWhitelist(uint256)": {
        "details": "Resets the whitelist for the provided item. This will allow anyone to purchase this item."
      },
      "setFee(uint256)": {
        "details": "Sets the TX fee that is applied to each purchase."
      },
      "setFeeCollector(address)": {
        "details": "Sets the address where TX fees are being sent to."
      },
      "setMinPrice(address,uint256)": {
        "details": "Sets the minimum price for new market items. The minimum price must be greater than 0."
      },
      "setMinStakingPercentage(uint256)": {
        "details": "Sets the minimum staking percentage for new market items. The minimum staking percentage must be greater than 0 and less then or equal to 100. The provided value is the actual percentage multiplied by 100."
      },
      "totalValueByOwner(address)": {
        "details": "Returns the total value for all items of the given owner."
      },
      "transferOwnership(address)": {
        "details": "Transfers the contract ownership."
      }
    },
    "version": 1
  },
  "userdoc": {
    "kind": "user",
    "methods": {},
    "version": 1
  },
  "storageLayout": {
    "storage": [
      {
        "astId": 634,
        "contract": "contracts/NidhiMarket.sol:NidhiMarket",
        "label": "_status",
        "offset": 0,
        "slot": "0",
        "type": "t_uint256"
      },
      {
        "astId": 4490,
        "contract": "contracts/NidhiMarket.sol:NidhiMarket",
        "label": "minPrice",
        "offset": 0,
        "slot": "1",
        "type": "t_mapping(t_address,t_uint256)"
      },
      {
        "astId": 4493,
        "contract": "contracts/NidhiMarket.sol:NidhiMarket",
        "label": "minStakingPercentage",
        "offset": 0,
        "slot": "2",
        "type": "t_uint256"
      },
      {
        "astId": 4495,
        "contract": "contracts/NidhiMarket.sol:NidhiMarket",
        "label": "fee",
        "offset": 0,
        "slot": "3",
        "type": "t_uint256"
      },
      {
        "astId": 4497,
        "contract": "contracts/NidhiMarket.sol:NidhiMarket",
        "label": "feeCollector",
        "offset": 0,
        "slot": "4",
        "type": "t_address"
      },
      {
        "astId": 4499,
        "contract": "contracts/NidhiMarket.sol:NidhiMarket",
        "label": "_itemIds",
        "offset": 0,
        "slot": "5",
        "type": "t_uint256"
      },
      {
        "astId": 4501,
        "contract": "contracts/NidhiMarket.sol:NidhiMarket",
        "label": "_owner",
        "offset": 0,
        "slot": "6",
        "type": "t_address"
      },
      {
        "astId": 4505,
        "contract": "contracts/NidhiMarket.sol:NidhiMarket",
        "label": "_isWhitelistedNFT",
        "offset": 0,
        "slot": "7",
        "type": "t_mapping(t_address,t_bool)"
      },
      {
        "astId": 4509,
        "contract": "contracts/NidhiMarket.sol:NidhiMarket",
        "label": "_isPaymentToken",
        "offset": 0,
        "slot": "8",
        "type": "t_mapping(t_address,t_bool)"
      },
      {
        "astId": 4514,
        "contract": "contracts/NidhiMarket.sol:NidhiMarket",
        "label": "_listedItemsByCreator",
        "offset": 0,
        "slot": "9",
        "type": "t_mapping(t_address,t_contract(NidhiCollection)8605)"
      },
      {
        "astId": 4519,
        "contract": "contracts/NidhiMarket.sol:NidhiMarket",
        "label": "_itemsByCreator",
        "offset": 0,
        "slot": "10",
        "type": "t_mapping(t_address,t_contract(NidhiCollection)8605)"
      },
      {
        "astId": 4524,
        "contract": "contracts/NidhiMarket.sol:NidhiMarket",
        "label": "_itemsByOwner",
        "offset": 0,
        "slot": "11",
        "type": "t_mapping(t_address,t_contract(NidhiCollection)8605)"
      },
      {
        "astId": 4530,
        "contract": "contracts/NidhiMarket.sol:NidhiMarket",
        "label": "_tokenIdToItemId",
        "offset": 0,
        "slot": "12",
        "type": "t_mapping(t_address,t_mapping(t_uint256,t_uint256))"
      },
      {
        "astId": 4535,
        "contract": "contracts/NidhiMarket.sol:NidhiMarket",
        "label": "_idToMarketItem",
        "offset": 0,
        "slot": "13",
        "type": "t_mapping(t_uint256,t_struct(MarketItem)4434_storage)"
      },
      {
        "astId": 4540,
        "contract": "contracts/NidhiMarket.sol:NidhiMarket",
        "label": "_routerPaths",
        "offset": 0,
        "slot": "14",
        "type": "t_mapping(t_address,t_array(t_address)dyn_storage)"
      },
      {
        "astId": 4546,
        "contract": "contracts/NidhiMarket.sol:NidhiMarket",
        "label": "_buyerWhitelist",
        "offset": 0,
        "slot": "15",
        "type": "t_mapping(t_uint256,t_mapping(t_address,t_bool))"
      },
      {
        "astId": 4549,
        "contract": "contracts/NidhiMarket.sol:NidhiMarket",
        "label": "_paymentTokens",
        "offset": 0,
        "slot": "16",
        "type": "t_array(t_address)dyn_storage"
      },
      {
        "astId": 4552,
        "contract": "contracts/NidhiMarket.sol:NidhiMarket",
        "label": "_listedItems",
        "offset": 0,
        "slot": "17",
        "type": "t_contract(NidhiCollection)8605"
      }
    ],
    "types": {
      "t_address": {
        "encoding": "inplace",
        "label": "address",
        "numberOfBytes": "20"
      },
      "t_array(t_address)dyn_storage": {
        "base": "t_address",
        "encoding": "dynamic_array",
        "label": "address[]",
        "numberOfBytes": "32"
      },
      "t_bool": {
        "encoding": "inplace",
        "label": "bool",
        "numberOfBytes": "1"
      },
      "t_contract(NidhiCollection)8605": {
        "encoding": "inplace",
        "label": "contract NidhiCollection",
        "numberOfBytes": "20"
      },
      "t_mapping(t_address,t_array(t_address)dyn_storage)": {
        "encoding": "mapping",
        "key": "t_address",
        "label": "mapping(address => address[])",
        "numberOfBytes": "32",
        "value": "t_array(t_address)dyn_storage"
      },
      "t_mapping(t_address,t_bool)": {
        "encoding": "mapping",
        "key": "t_address",
        "label": "mapping(address => bool)",
        "numberOfBytes": "32",
        "value": "t_bool"
      },
      "t_mapping(t_address,t_contract(NidhiCollection)8605)": {
        "encoding": "mapping",
        "key": "t_address",
        "label": "mapping(address => contract NidhiCollection)",
        "numberOfBytes": "32",
        "value": "t_contract(NidhiCollection)8605"
      },
      "t_mapping(t_address,t_mapping(t_uint256,t_uint256))": {
        "encoding": "mapping",
        "key": "t_address",
        "label": "mapping(address => mapping(uint256 => uint256))",
        "numberOfBytes": "32",
        "value": "t_mapping(t_uint256,t_uint256)"
      },
      "t_mapping(t_address,t_uint256)": {
        "encoding": "mapping",
        "key": "t_address",
        "label": "mapping(address => uint256)",
        "numberOfBytes": "32",
        "value": "t_uint256"
      },
      "t_mapping(t_uint256,t_mapping(t_address,t_bool))": {
        "encoding": "mapping",
        "key": "t_uint256",
        "label": "mapping(uint256 => mapping(address => bool))",
        "numberOfBytes": "32",
        "value": "t_mapping(t_address,t_bool)"
      },
      "t_mapping(t_uint256,t_struct(MarketItem)4434_storage)": {
        "encoding": "mapping",
        "key": "t_uint256",
        "label": "mapping(uint256 => struct NidhiMarket.MarketItem)",
        "numberOfBytes": "32",
        "value": "t_struct(MarketItem)4434_storage"
      },
      "t_mapping(t_uint256,t_uint256)": {
        "encoding": "mapping",
        "key": "t_uint256",
        "label": "mapping(uint256 => uint256)",
        "numberOfBytes": "32",
        "value": "t_uint256"
      },
      "t_struct(MarketItem)4434_storage": {
        "encoding": "inplace",
        "label": "struct NidhiMarket.MarketItem",
        "members": [
          {
            "astId": 4413,
            "contract": "contracts/NidhiMarket.sol:NidhiMarket",
            "label": "itemId",
            "offset": 0,
            "slot": "0",
            "type": "t_uint256"
          },
          {
            "astId": 4415,
            "contract": "contracts/NidhiMarket.sol:NidhiMarket",
            "label": "nftContract",
            "offset": 0,
            "slot": "1",
            "type": "t_address"
          },
          {
            "astId": 4417,
            "contract": "contracts/NidhiMarket.sol:NidhiMarket",
            "label": "tokenId",
            "offset": 0,
            "slot": "2",
            "type": "t_uint256"
          },
          {
            "astId": 4419,
            "contract": "contracts/NidhiMarket.sol:NidhiMarket",
            "label": "seller",
            "offset": 0,
            "slot": "3",
            "type": "t_address"
          },
          {
            "astId": 4421,
            "contract": "contracts/NidhiMarket.sol:NidhiMarket",
            "label": "owner",
            "offset": 0,
            "slot": "4",
            "type": "t_address"
          },
          {
            "astId": 4423,
            "contract": "contracts/NidhiMarket.sol:NidhiMarket",
            "label": "paymentToken",
            "offset": 0,
            "slot": "5",
            "type": "t_address"
          },
          {
            "astId": 4425,
            "contract": "contracts/NidhiMarket.sol:NidhiMarket",
            "label": "price",
            "offset": 0,
            "slot": "6",
            "type": "t_uint256"
          },
          {
            "astId": 4427,
            "contract": "contracts/NidhiMarket.sol:NidhiMarket",
            "label": "payoutAmount",
            "offset": 0,
            "slot": "7",
            "type": "t_uint256"
          },
          {
            "astId": 4429,
            "contract": "contracts/NidhiMarket.sol:NidhiMarket",
            "label": "stakedAmount",
            "offset": 0,
            "slot": "8",
            "type": "t_uint256"
          },
          {
            "astId": 4431,
            "contract": "contracts/NidhiMarket.sol:NidhiMarket",
            "label": "gons",
            "offset": 0,
            "slot": "9",
            "type": "t_uint256"
          },
          {
            "astId": 4433,
            "contract": "contracts/NidhiMarket.sol:NidhiMarket",
            "label": "listed",
            "offset": 0,
            "slot": "10",
            "type": "t_bool"
          }
        ],
        "numberOfBytes": "352"
      },
      "t_uint256": {
        "encoding": "inplace",
        "label": "uint256",
        "numberOfBytes": "32"
      }
    }
  }
}